{
  "contractName": "BibleTokenMetadata",
  "abi": [
    {
      "constant": true,
      "inputs": [
        {
          "name": "_interfaceId",
          "type": "bytes4"
        }
      ],
      "name": "supportsInterface",
      "outputs": [
        {
          "name": "",
          "type": "bool"
        }
      ],
      "payable": false,
      "stateMutability": "view",
      "type": "function"
    },
    {
      "constant": true,
      "inputs": [
        {
          "name": "_tokenIndex",
          "type": "uint256"
        }
      ],
      "name": "getApproved",
      "outputs": [
        {
          "name": "",
          "type": "address"
        }
      ],
      "payable": false,
      "stateMutability": "view",
      "type": "function"
    },
    {
      "constant": false,
      "inputs": [
        {
          "name": "_approved",
          "type": "address"
        },
        {
          "name": "_tokenIndex",
          "type": "uint256"
        }
      ],
      "name": "approve",
      "outputs": [],
      "payable": false,
      "stateMutability": "nonpayable",
      "type": "function"
    },
    {
      "constant": false,
      "inputs": [
        {
          "name": "_from",
          "type": "address"
        },
        {
          "name": "_to",
          "type": "address"
        },
        {
          "name": "_tokenIndex",
          "type": "uint256"
        }
      ],
      "name": "transferFrom",
      "outputs": [],
      "payable": false,
      "stateMutability": "nonpayable",
      "type": "function"
    },
    {
      "constant": false,
      "inputs": [],
      "name": "unpause",
      "outputs": [],
      "payable": false,
      "stateMutability": "nonpayable",
      "type": "function"
    },
    {
      "constant": false,
      "inputs": [
        {
          "name": "_from",
          "type": "address"
        },
        {
          "name": "_to",
          "type": "address"
        },
        {
          "name": "_tokenIndex",
          "type": "uint256"
        }
      ],
      "name": "safeTransferFrom",
      "outputs": [],
      "payable": false,
      "stateMutability": "nonpayable",
      "type": "function"
    },
    {
      "constant": true,
      "inputs": [],
      "name": "paused",
      "outputs": [
        {
          "name": "",
          "type": "bool"
        }
      ],
      "payable": false,
      "stateMutability": "view",
      "type": "function"
    },
    {
      "constant": true,
      "inputs": [
        {
          "name": "_tokenIndex",
          "type": "uint256"
        }
      ],
      "name": "ownerOf",
      "outputs": [
        {
          "name": "_owner",
          "type": "address"
        }
      ],
      "payable": false,
      "stateMutability": "view",
      "type": "function"
    },
    {
      "constant": true,
      "inputs": [
        {
          "name": "_owner",
          "type": "address"
        }
      ],
      "name": "balanceOf",
      "outputs": [
        {
          "name": "",
          "type": "uint256"
        }
      ],
      "payable": false,
      "stateMutability": "view",
      "type": "function"
    },
    {
      "constant": false,
      "inputs": [],
      "name": "pause",
      "outputs": [],
      "payable": false,
      "stateMutability": "nonpayable",
      "type": "function"
    },
    {
      "constant": true,
      "inputs": [],
      "name": "owner",
      "outputs": [
        {
          "name": "",
          "type": "address"
        }
      ],
      "payable": false,
      "stateMutability": "view",
      "type": "function"
    },
    {
      "constant": false,
      "inputs": [
        {
          "name": "_operator",
          "type": "address"
        },
        {
          "name": "_approved",
          "type": "bool"
        }
      ],
      "name": "setApprovalForAll",
      "outputs": [],
      "payable": false,
      "stateMutability": "nonpayable",
      "type": "function"
    },
    {
      "constant": false,
      "inputs": [
        {
          "name": "_from",
          "type": "address"
        },
        {
          "name": "_to",
          "type": "address"
        },
        {
          "name": "_tokenIndex",
          "type": "uint256"
        },
        {
          "name": "_data",
          "type": "bytes"
        }
      ],
      "name": "safeTransferFrom",
      "outputs": [],
      "payable": false,
      "stateMutability": "nonpayable",
      "type": "function"
    },
    {
      "constant": true,
      "inputs": [
        {
          "name": "_owner",
          "type": "address"
        },
        {
          "name": "_operator",
          "type": "address"
        }
      ],
      "name": "isApprovedForAll",
      "outputs": [
        {
          "name": "",
          "type": "bool"
        }
      ],
      "payable": false,
      "stateMutability": "view",
      "type": "function"
    },
    {
      "constant": false,
      "inputs": [
        {
          "name": "_newOwner",
          "type": "address"
        }
      ],
      "name": "transferOwnership",
      "outputs": [],
      "payable": false,
      "stateMutability": "nonpayable",
      "type": "function"
    },
    {
      "inputs": [],
      "payable": false,
      "stateMutability": "nonpayable",
      "type": "constructor"
    },
    {
      "anonymous": false,
      "inputs": [
        {
          "indexed": true,
          "name": "_from",
          "type": "address"
        },
        {
          "indexed": true,
          "name": "_to",
          "type": "address"
        },
        {
          "indexed": false,
          "name": "_tokenIndex",
          "type": "uint256"
        }
      ],
      "name": "Transfer",
      "type": "event"
    },
    {
      "anonymous": false,
      "inputs": [
        {
          "indexed": true,
          "name": "_owner",
          "type": "address"
        },
        {
          "indexed": true,
          "name": "_approved",
          "type": "address"
        },
        {
          "indexed": false,
          "name": "_tokenIndex",
          "type": "uint256"
        }
      ],
      "name": "Approval",
      "type": "event"
    },
    {
      "anonymous": false,
      "inputs": [
        {
          "indexed": true,
          "name": "_owner",
          "type": "address"
        },
        {
          "indexed": true,
          "name": "_operator",
          "type": "address"
        },
        {
          "indexed": false,
          "name": "_approved",
          "type": "bool"
        }
      ],
      "name": "ApprovalForAll",
      "type": "event"
    },
    {
      "anonymous": false,
      "inputs": [],
      "name": "Pause",
      "type": "event"
    },
    {
      "anonymous": false,
      "inputs": [],
      "name": "Unpause",
      "type": "event"
    },
    {
      "anonymous": false,
      "inputs": [
        {
          "indexed": true,
          "name": "previousOwner",
          "type": "address"
        },
        {
          "indexed": true,
          "name": "newOwner",
          "type": "address"
        }
      ],
      "name": "OwnershipTransferred",
      "type": "event"
    },
    {
      "constant": true,
      "inputs": [],
      "name": "name",
      "outputs": [
        {
          "name": "",
          "type": "string"
        }
      ],
      "payable": false,
      "stateMutability": "view",
      "type": "function"
    },
    {
      "constant": true,
      "inputs": [],
      "name": "symbol",
      "outputs": [
        {
          "name": "",
          "type": "string"
        }
      ],
      "payable": false,
      "stateMutability": "view",
      "type": "function"
    }
  ],
  "bytecode": "0x6000805460a060020a60ff021916905560c0604052600a60808190527f4269626c65546f6b656e0000000000000000000000000000000000000000000060a0908152620000509160069190620003da565b506040805180820190915260028082527f425400000000000000000000000000000000000000000000000000000000000060209092019182526200009791600791620003da565b50348015620000a557600080fd5b5060008054600160a060020a031916331781557f01ffc9a7000000000000000000000000000000000000000000000000000000008152600160208181527fb45820386466a8e01597d6e1efaf8f11ba4467972de5ca6c1f8aa3544ac2888e805460ff199081168417909155604080517f6973417070726f766564466f72416c6c28616464726573732c6164647265737381527f29000000000000000000000000000000000000000000000000000000000000008185015281519081900360210181207f676574417070726f7665642875696e7432353629000000000000000000000000825282519182900360140182207f736574417070726f76616c466f72416c6c28616464726573732c626f6f6c29008352835192839003601f0183207f617070726f766528616464726573732c75696e74323536290000000000000000845284519384900360180184207f7472616e7366657246726f6d28616464726573732c616464726573732c75696e85527f74323536290000000000000000000000000000000000000000000000000000008589015285519485900360250185207f736166655472616e7366657246726f6d28616464726573732c616464726573738087527f2c75696e74323536290000000000000000000000000000000000000000000000878b015287519687900360290187209087527f2c75696e743235362c6279746573290000000000000000000000000000000000878b0152875196879003602f0187207f6f776e65724f662875696e743235362900000000000000000000000000000000885288519788900360100188207f62616c616e63654f6628616464726573732900000000000000000000000000008952895198899003601201892018181818181818187fffffffff00000000000000000000000000000000000000000000000000000000908116875285855282872080548516871790557f73796d626f6c2829000000000000000000000000000000000000000000000000825282519182900360080182207f6e616d6528290000000000000000000000000000000000000000000000000000835283519283900360060190922090911816855291839052922080549092161790556200047f565b828054600181600116156101000203166002900490600052602060002090601f016020900481019282601f106200041d57805160ff19168380011785556200044d565b828001600101855582156200044d579182015b828111156200044d57825182559160200191906001019062000430565b506200045b9291506200045f565b5090565b6200047c91905b808211156200045b576000815560010162000466565b90565b61103b806200048f6000396000f3006080604052600436106100f05763ffffffff7c010000000000000000000000000000000000000000000000000000000060003504166301ffc9a781146100f557806306fdde0314610140578063081812fc146101ca578063095ea7b3146101fe57806323b872dd146102245780633f4ba83a1461024e57806342842e0e146102635780635c975abb1461028d5780636352211e146102a257806370a08231146102ba5780638456cb59146102ed5780638da5cb5b1461030257806395d89b4114610317578063a22cb4651461032c578063b88d4fde14610352578063e985e9c51461038b578063f2fde38b146103b2575b600080fd5b34801561010157600080fd5b5061012c7bffffffffffffffffffffffffffffffffffffffffffffffffffffffff19600435166103d3565b604080519115158252519081900360200190f35b34801561014c57600080fd5b5061015561040b565b6040805160208082528351818301528351919283929083019185019080838360005b8381101561018f578181015183820152602001610177565b50505050905090810190601f1680156101bc5780820380516001836020036101000a031916815260200191505b509250505060405180910390f35b3480156101d657600080fd5b506101e26004356104a1565b60408051600160a060020a039092168252519081900360200190f35b34801561020a57600080fd5b50610222600160a060020a03600435166024356104e3565b005b34801561023057600080fd5b50610222600160a060020a0360043581169060243516604435610637565b34801561025a57600080fd5b50610222610724565b34801561026f57600080fd5b50610222600160a060020a03600435811690602435166044356107ab565b34801561029957600080fd5b5061012c6107cc565b3480156102ae57600080fd5b506101e26004356107ed565b3480156102c657600080fd5b506102db600160a060020a0360043516610811565b60408051918252519081900360200190f35b3480156102f957600080fd5b50610222610844565b34801561030e57600080fd5b506101e26108e1565b34801561032357600080fd5b506101556108f0565b34801561033857600080fd5b50610222600160a060020a03600435166024351515610951565b34801561035e57600080fd5b50610222600160a060020a03600480358216916024803590911691604435916064359081019101356109d4565b34801561039757600080fd5b5061012c600160a060020a0360043581169060243516610a17565b3480156103be57600080fd5b50610222600160a060020a0360043516610a72565b7bffffffffffffffffffffffffffffffffffffffffffffffffffffffff19811660009081526001602052604090205460ff165b919050565b60068054604080516020601f60026000196101006001881615020190951694909404938401819004810282018101909252828152606093909290918301828280156104975780601f1061046c57610100808354040283529160200191610497565b820191906000526020600020905b81548152906001019060200180831161047a57829003601f168201915b5050505050905090565b6000818152600260205260408120548290600160a060020a031615156104c657600080fd5b5050600090815260036020526040902054600160a060020a031690565b6000818152600260205260408120548290600160a060020a03163381148061052e5750600160a060020a038116600090815260056020908152604080832033845290915290205460ff165b151561053957600080fd5b6000848152600260205260409020548490600160a060020a0316151561055e57600080fd5b600085815260026020526040902054600160a060020a039081169450861684141561058857600080fd5b600085815260036020526040902054600160a060020a03161580156105b45750600160a060020a038616155b156105be57600080fd5b600085815260036020908152604091829020805473ffffffffffffffffffffffffffffffffffffffff1916600160a060020a038a8116918217909255835189815293519093918816927f8c5be1e5ebec7d5bd14f71427d1e84f3dd0314c0f7b2291e5b200ac8c7c3b925928290030190a3505050505050565b6000818152600260205260408120548290600160a060020a0316338114806106755750600082815260036020526040902054600160a060020a031633145b806106a35750600160a060020a038116600090815260056020908152604080832033845290915290205460ff165b15156106ae57600080fd5b6000848152600260205260409020548490600160a060020a031615156106d357600080fd5b600085815260026020526040902054600160a060020a039081169450871684146106fc57600080fd5b600160a060020a038616151561071157600080fd5b61071b8686610b06565b50505050505050565b600054600160a060020a0316331461073b57600080fd5b60005474010000000000000000000000000000000000000000900460ff16151561076457600080fd5b6000805474ff0000000000000000000000000000000000000000191681556040517f7805862f689e2f13df9f062ff482ad3ad112aca9e0847911ed832e158c525b339190a1565b6107c78383836020604051908101604052806000815250610b8c565b505050565b60005474010000000000000000000000000000000000000000900460ff1681565b600081815260026020526040902054600160a060020a031680151561040657600080fd5b6000600160a060020a038216151561082857600080fd5b50600160a060020a031660009081526004602052604090205490565b600054600160a060020a0316331461085b57600080fd5b60005474010000000000000000000000000000000000000000900460ff161561088357600080fd5b6000805474ff00000000000000000000000000000000000000001916740100000000000000000000000000000000000000001781556040517f6985a02210a168e66602d3235cb6db0e70f92b3ba4d376a33c0f3d9434bff6259190a1565b600054600160a060020a031681565b60078054604080516020601f60026000196101006001881615020190951694909404938401819004810282018101909252828152606093909290918301828280156104975780601f1061046c57610100808354040283529160200191610497565b600160a060020a038216151561096657600080fd5b336000818152600560209081526040808320600160a060020a03871680855290835292819020805460ff1916861515908117909155815190815290519293927f17307eab39ab6107e8899845ad3d59bd9653f200f220920489ca2b5937696c31929181900390910190a35050565b610a1085858585858080601f01602080910402602001604051908101604052809392919081815260200183838082843750610b8c945050505050565b5050505050565b6000600160a060020a0383161515610a2e57600080fd5b600160a060020a0382161515610a4357600080fd5b50600160a060020a03918216600090815260056020908152604080832093909416825291909152205460ff1690565b600054600160a060020a03163314610a8957600080fd5b600160a060020a0381161515610a9e57600080fd5b60008054604051600160a060020a03808516939216917f8be0079c531659141344cd1fd0a4f28419497f9722a3daafe3b4186f6b6457e091a36000805473ffffffffffffffffffffffffffffffffffffffff1916600160a060020a0392909216919091179055565b600081815260026020526040902054600160a060020a0316610b288183610e2e565b610b328183610e98565b610b3c8383610f4e565b82600160a060020a031681600160a060020a03167fddf252ad1be2c89b69c2b068fc378daa952ba7f163c4a11628f55a4df523b3ef846040518082815260200191505060405180910390a3505050565b60008281526002602052604081205481908490600160a060020a031633811480610bcc5750600082815260036020526040902054600160a060020a031633145b80610bfa5750600160a060020a038116600090815260056020908152604080832033845290915290205460ff165b1515610c0557600080fd5b6000868152600260205260409020548690600160a060020a03161515610c2a57600080fd5b600087815260026020526040902054600160a060020a03908116955089168514610c5357600080fd5b600160a060020a0388161515610c6857600080fd5b610c728888610b06565b610c8488600160a060020a0316610fdf565b15610e235787600160a060020a031663f0b9e5ba8a89896040518463ffffffff167c01000000000000000000000000000000000000000000000000000000000281526004018084600160a060020a0316600160a060020a0316815260200183815260200180602001828103825283818151815260200191508051906020019080838360005b83811015610d21578181015183820152602001610d09565b50505050905090810190601f168015610d4e5780820380516001836020036101000a031916815260200191505b50945050505050602060405180830381600087803b158015610d6f57600080fd5b505af1158015610d83573d6000803e3d6000fd5b505050506040513d6020811015610d9957600080fd5b5051604080517f6f6e455243373231526563656976656428616464726573732c75696e7432353681527f2c62797465732900000000000000000000000000000000000000000000000000602082015290519081900360270190209094507bffffffffffffffffffffffffffffffffffffffffffffffffffffffff19808616911614610e2357600080fd5b505050505050505050565b6000818152600360209081526040808320805473ffffffffffffffffffffffffffffffffffffffff1916905580518481529051600160a060020a038616927f8c5be1e5ebec7d5bd14f71427d1e84f3dd0314c0f7b2291e5b200ac8c7c3b925928290030190a35050565b600081815260026020526040902054600160a060020a03838116911614610ebe57600080fd5b600160a060020a03821660009081526004602052604081205411610ede57fe5b600160a060020a038216600090815260046020526040902054610f0890600163ffffffff610fe716565b600160a060020a03909216600090815260046020908152604080832094909455918152600290915220805473ffffffffffffffffffffffffffffffffffffffff19169055565b600081815260026020526040902054600160a060020a031615610f7057600080fd5b6000818152600260209081526040808320805473ffffffffffffffffffffffffffffffffffffffff1916600160a060020a03871690811790915583526004909152902054610fbf906001610ff9565b600160a060020a0390921660009081526004602052604090209190915550565b6000903b1190565b600082821115610ff357fe5b50900390565b60008282018381101561100857fe5b93925050505600a165627a7a72305820d53dade17f8726540fa2a03671444b94e694efd6afc0ae90474856c8e3ad5bce0029",
  "source": "/**\n * @file BibleTokenMetadata.sol\n * @author John DeBord <i@johndebord.tk>\n * @date 2018\n * \n * Utilizing 0xcert's ERC721 token implementation\n * https://0xcert.org/\n */\n\npragma solidity ^0.4.20;\n\nimport \"./BibleTokenOwnership.sol\";\nimport \"./ERC721Metadata.sol\";\n\n/**\n * @title BibleTokenMetadata\n * @dev Optional metadata implementation for ERC-721 non-fungible token standard.\n */\ncontract BibleTokenMetadata is\n    BibleTokenOwnership,\n    ERC721Metadata\n{\n\n    /**\n    * @dev The name of the token.\n    */\n    string private tokenName = \"BibleToken\";\n\n    /**\n    * @dev The abbreviated symbol of the token.\n    */\n    string private tokenSymbol = \"BT\";\n\n    /**\n    * @dev Contract constructor.\n    */\n    function BibleTokenMetadata(\n    )\n        public\n    {\n        supportedInterfaces[bytes4(\n            (keccak256(\"name()\")) ^\n            (keccak256(\"symbol()\")))] = true; // ERC721Metadata; 0x93254542\n    }\n\n    /**\n    * @dev Returns the name of the token.\n    */\n    function name()\n        external\n        view\n        returns (string)\n    {\n        return tokenName;\n    }\n\n    /**\n    * @dev Returns the abbreviated symbol of the token.\n    */\n    function symbol()\n        external\n        view\n        returns (string)\n    {\n        return tokenSymbol;\n    }\n\n}\n",
  "sourcePath": "/home/i/BibleToken/contracts/BibleTokenMetadata.sol",
  "compiler": {
    "name": "solc",
    "version": "0.4.24+commit.e67f0147.Emscripten.clang"
  },
  "schemaVersion": "2.0.0",
  "updatedAt": "2018-07-07T04:00:26.279Z"
}