{
  "contractName": "BibleTokenMinting",
  "abi": [
    {
      "constant": true,
      "inputs": [
        {
          "name": "_interfaceId",
          "type": "bytes4"
        }
      ],
      "name": "supportsInterface",
      "outputs": [
        {
          "name": "",
          "type": "bool"
        }
      ],
      "payable": false,
      "stateMutability": "view",
      "type": "function"
    },
    {
      "constant": true,
      "inputs": [
        {
          "name": "_tokenIndex",
          "type": "uint256"
        }
      ],
      "name": "getApproved",
      "outputs": [
        {
          "name": "",
          "type": "address"
        }
      ],
      "payable": false,
      "stateMutability": "view",
      "type": "function"
    },
    {
      "constant": false,
      "inputs": [
        {
          "name": "_approved",
          "type": "address"
        },
        {
          "name": "_tokenIndex",
          "type": "uint256"
        }
      ],
      "name": "approve",
      "outputs": [],
      "payable": false,
      "stateMutability": "nonpayable",
      "type": "function"
    },
    {
      "constant": true,
      "inputs": [],
      "name": "updateBookNameGasLimit",
      "outputs": [
        {
          "name": "",
          "type": "uint256"
        }
      ],
      "payable": false,
      "stateMutability": "view",
      "type": "function"
    },
    {
      "constant": true,
      "inputs": [],
      "name": "totalSupply",
      "outputs": [
        {
          "name": "",
          "type": "uint256"
        }
      ],
      "payable": false,
      "stateMutability": "view",
      "type": "function"
    },
    {
      "constant": true,
      "inputs": [],
      "name": "mintVerseGasLimit",
      "outputs": [
        {
          "name": "",
          "type": "uint256"
        }
      ],
      "payable": false,
      "stateMutability": "view",
      "type": "function"
    },
    {
      "constant": false,
      "inputs": [
        {
          "name": "_from",
          "type": "address"
        },
        {
          "name": "_to",
          "type": "address"
        },
        {
          "name": "_tokenIndex",
          "type": "uint256"
        }
      ],
      "name": "transferFrom",
      "outputs": [],
      "payable": false,
      "stateMutability": "nonpayable",
      "type": "function"
    },
    {
      "constant": true,
      "inputs": [],
      "name": "currentBookName",
      "outputs": [
        {
          "name": "",
          "type": "string"
        }
      ],
      "payable": false,
      "stateMutability": "view",
      "type": "function"
    },
    {
      "constant": false,
      "inputs": [],
      "name": "unpause",
      "outputs": [],
      "payable": false,
      "stateMutability": "nonpayable",
      "type": "function"
    },
    {
      "constant": false,
      "inputs": [
        {
          "name": "_from",
          "type": "address"
        },
        {
          "name": "_to",
          "type": "address"
        },
        {
          "name": "_tokenIndex",
          "type": "uint256"
        }
      ],
      "name": "safeTransferFrom",
      "outputs": [],
      "payable": false,
      "stateMutability": "nonpayable",
      "type": "function"
    },
    {
      "constant": true,
      "inputs": [],
      "name": "paused",
      "outputs": [
        {
          "name": "",
          "type": "bool"
        }
      ],
      "payable": false,
      "stateMutability": "view",
      "type": "function"
    },
    {
      "constant": true,
      "inputs": [
        {
          "name": "_tokenIndex",
          "type": "uint256"
        }
      ],
      "name": "ownerOf",
      "outputs": [
        {
          "name": "_owner",
          "type": "address"
        }
      ],
      "payable": false,
      "stateMutability": "view",
      "type": "function"
    },
    {
      "constant": true,
      "inputs": [],
      "name": "updateChapterVersesIGasLimit",
      "outputs": [
        {
          "name": "",
          "type": "uint256"
        }
      ],
      "payable": false,
      "stateMutability": "view",
      "type": "function"
    },
    {
      "constant": true,
      "inputs": [
        {
          "name": "_owner",
          "type": "address"
        }
      ],
      "name": "balanceOf",
      "outputs": [
        {
          "name": "",
          "type": "uint256"
        }
      ],
      "payable": false,
      "stateMutability": "view",
      "type": "function"
    },
    {
      "constant": false,
      "inputs": [],
      "name": "pause",
      "outputs": [],
      "payable": false,
      "stateMutability": "nonpayable",
      "type": "function"
    },
    {
      "constant": true,
      "inputs": [],
      "name": "owner",
      "outputs": [
        {
          "name": "",
          "type": "address"
        }
      ],
      "payable": false,
      "stateMutability": "view",
      "type": "function"
    },
    {
      "constant": true,
      "inputs": [],
      "name": "booksCompleted",
      "outputs": [
        {
          "name": "",
          "type": "uint8"
        }
      ],
      "payable": false,
      "stateMutability": "view",
      "type": "function"
    },
    {
      "constant": true,
      "inputs": [],
      "name": "currentVerseNumber",
      "outputs": [
        {
          "name": "",
          "type": "uint8"
        }
      ],
      "payable": false,
      "stateMutability": "view",
      "type": "function"
    },
    {
      "constant": true,
      "inputs": [],
      "name": "queryCount",
      "outputs": [
        {
          "name": "",
          "type": "uint8"
        }
      ],
      "payable": false,
      "stateMutability": "view",
      "type": "function"
    },
    {
      "constant": true,
      "inputs": [],
      "name": "price",
      "outputs": [
        {
          "name": "",
          "type": "uint256"
        }
      ],
      "payable": false,
      "stateMutability": "view",
      "type": "function"
    },
    {
      "constant": false,
      "inputs": [
        {
          "name": "_operator",
          "type": "address"
        },
        {
          "name": "_approved",
          "type": "bool"
        }
      ],
      "name": "setApprovalForAll",
      "outputs": [],
      "payable": false,
      "stateMutability": "nonpayable",
      "type": "function"
    },
    {
      "constant": true,
      "inputs": [],
      "name": "currentNumberOfChapters",
      "outputs": [
        {
          "name": "",
          "type": "uint8"
        }
      ],
      "payable": false,
      "stateMutability": "view",
      "type": "function"
    },
    {
      "constant": true,
      "inputs": [],
      "name": "contractCanMint",
      "outputs": [
        {
          "name": "",
          "type": "bool"
        }
      ],
      "payable": false,
      "stateMutability": "view",
      "type": "function"
    },
    {
      "constant": true,
      "inputs": [],
      "name": "updateChapterVersesIIGasLimit",
      "outputs": [
        {
          "name": "",
          "type": "uint256"
        }
      ],
      "payable": false,
      "stateMutability": "view",
      "type": "function"
    },
    {
      "constant": false,
      "inputs": [
        {
          "name": "_from",
          "type": "address"
        },
        {
          "name": "_to",
          "type": "address"
        },
        {
          "name": "_tokenIndex",
          "type": "uint256"
        },
        {
          "name": "_data",
          "type": "bytes"
        }
      ],
      "name": "safeTransferFrom",
      "outputs": [],
      "payable": false,
      "stateMutability": "nonpayable",
      "type": "function"
    },
    {
      "constant": true,
      "inputs": [],
      "name": "halted",
      "outputs": [
        {
          "name": "",
          "type": "bool"
        }
      ],
      "payable": false,
      "stateMutability": "view",
      "type": "function"
    },
    {
      "constant": true,
      "inputs": [],
      "name": "currentChapterNumber",
      "outputs": [
        {
          "name": "",
          "type": "uint8"
        }
      ],
      "payable": false,
      "stateMutability": "view",
      "type": "function"
    },
    {
      "constant": true,
      "inputs": [],
      "name": "currentChapterVersesNumber",
      "outputs": [
        {
          "name": "",
          "type": "uint8"
        }
      ],
      "payable": false,
      "stateMutability": "view",
      "type": "function"
    },
    {
      "constant": true,
      "inputs": [],
      "name": "updateNumberOfChaptersGasLimit",
      "outputs": [
        {
          "name": "",
          "type": "uint256"
        }
      ],
      "payable": false,
      "stateMutability": "view",
      "type": "function"
    },
    {
      "constant": true,
      "inputs": [
        {
          "name": "_owner",
          "type": "address"
        },
        {
          "name": "_operator",
          "type": "address"
        }
      ],
      "name": "isApprovedForAll",
      "outputs": [
        {
          "name": "",
          "type": "bool"
        }
      ],
      "payable": false,
      "stateMutability": "view",
      "type": "function"
    },
    {
      "constant": false,
      "inputs": [
        {
          "name": "_newOwner",
          "type": "address"
        }
      ],
      "name": "transferOwnership",
      "outputs": [],
      "payable": false,
      "stateMutability": "nonpayable",
      "type": "function"
    },
    {
      "anonymous": false,
      "inputs": [
        {
          "indexed": false,
          "name": "_owner",
          "type": "address"
        },
        {
          "indexed": false,
          "name": "_bookName",
          "type": "string"
        },
        {
          "indexed": false,
          "name": "_chapterNumber",
          "type": "uint8"
        },
        {
          "indexed": false,
          "name": "_verseNumber",
          "type": "uint8"
        },
        {
          "indexed": false,
          "name": "_verseText",
          "type": "string"
        }
      ],
      "name": "VerseMinted",
      "type": "event"
    },
    {
      "anonymous": false,
      "inputs": [
        {
          "indexed": false,
          "name": "_description",
          "type": "string"
        }
      ],
      "name": "OraclizeQuery",
      "type": "event"
    },
    {
      "anonymous": false,
      "inputs": [],
      "name": "Halt",
      "type": "event"
    },
    {
      "anonymous": false,
      "inputs": [],
      "name": "Unhalt",
      "type": "event"
    },
    {
      "anonymous": false,
      "inputs": [
        {
          "indexed": true,
          "name": "_from",
          "type": "address"
        },
        {
          "indexed": true,
          "name": "_to",
          "type": "address"
        },
        {
          "indexed": false,
          "name": "_tokenIndex",
          "type": "uint256"
        }
      ],
      "name": "Transfer",
      "type": "event"
    },
    {
      "anonymous": false,
      "inputs": [
        {
          "indexed": true,
          "name": "_owner",
          "type": "address"
        },
        {
          "indexed": true,
          "name": "_approved",
          "type": "address"
        },
        {
          "indexed": false,
          "name": "_tokenIndex",
          "type": "uint256"
        }
      ],
      "name": "Approval",
      "type": "event"
    },
    {
      "anonymous": false,
      "inputs": [
        {
          "indexed": true,
          "name": "_owner",
          "type": "address"
        },
        {
          "indexed": true,
          "name": "_operator",
          "type": "address"
        },
        {
          "indexed": false,
          "name": "_approved",
          "type": "bool"
        }
      ],
      "name": "ApprovalForAll",
      "type": "event"
    },
    {
      "anonymous": false,
      "inputs": [],
      "name": "Pause",
      "type": "event"
    },
    {
      "anonymous": false,
      "inputs": [],
      "name": "Unpause",
      "type": "event"
    },
    {
      "anonymous": false,
      "inputs": [
        {
          "indexed": true,
          "name": "previousOwner",
          "type": "address"
        },
        {
          "indexed": true,
          "name": "newOwner",
          "type": "address"
        }
      ],
      "name": "OwnershipTransferred",
      "type": "event"
    },
    {
      "constant": false,
      "inputs": [],
      "name": "ownerUnhalt",
      "outputs": [],
      "payable": false,
      "stateMutability": "nonpayable",
      "type": "function"
    },
    {
      "constant": false,
      "inputs": [
        {
          "name": "_myid",
          "type": "bytes32"
        },
        {
          "name": "_result",
          "type": "string"
        }
      ],
      "name": "__callback",
      "outputs": [],
      "payable": false,
      "stateMutability": "nonpayable",
      "type": "function"
    },
    {
      "constant": false,
      "inputs": [
        {
          "name": "myid",
          "type": "bytes32"
        },
        {
          "name": "result",
          "type": "string"
        },
        {
          "name": "proof",
          "type": "bytes"
        }
      ],
      "name": "__callback",
      "outputs": [],
      "payable": false,
      "stateMutability": "nonpayable",
      "type": "function"
    },
    {
      "constant": false,
      "inputs": [],
      "name": "mint",
      "outputs": [],
      "payable": true,
      "stateMutability": "payable",
      "type": "function"
    }
  ],
  "bytecode": "0x608060408190526003805466d529ae9e860000601155621e8480601255620f42406013819055601481905560158190556016556017805462ffffff1916905564010000000033027fffffffffffffff000000000000000000000000000000000000000000ffffffff90911617905560046020527f9fe05126d2d9ecf60592e254dead906a4b2e492f36cca727682c38e9008c6ac1805460ff1990811660019081179092557f2c75696e743235362c627974657329000000000000000000000000000000000060a0527f4267c0a6fd96b7a87f183ee8744f24d011423cd0e0142b3f563f183d8d9a456b80548216831790557f746f74616c537570706c792829000000000000000000000000000000000000009092527f18160ddd000000000000000000000000000000000000000000000000000000006000527f9171736be031cad9cbe57de6663a35fd6e25acb3e756b52ad2e71a78653c70938054909216179055613695806101706000396000f30060806040526004361061019d5763ffffffff60e060020a60003504166301ffc9a781146101a2578063081812fc146101ed578063095ea7b31461022157806310c5cf54146102475780631249c58b1461026e57806318160ddd146102765780631cbd74051461028b57806323b872dd146102a057806327dc297e146102ca57806335df3bd61461032857806338bbfa50146103b25780633f4ba83a1461044e57806342842e0e146104635780635c975abb1461048d5780636352211e146104a25780636e2387f4146104ba57806370a08231146104cf5780638456cb59146104f05780638da5cb5b146105055780639894eab21461051a57806399118448146105455780639b2aded41461055a578063a035b1fe1461056f578063a22cb46514610584578063b15b5b81146105aa578063b28725e7146105bf578063b652dd3e146105d4578063b88d4fde146105e9578063b9b8af0b14610622578063be0e95a514610637578063d0c5e63a1461064c578063d523be0414610661578063d94da80114610676578063e985e9c51461068b578063f2fde38b146106b2575b600080fd5b3480156101ae57600080fd5b506101d97bffffffffffffffffffffffffffffffffffffffffffffffffffffffff19600435166106d3565b604080519115158252519081900360200190f35b3480156101f957600080fd5b5061020560043561070b565b60408051600160a060020a039092168252519081900360200190f35b34801561022d57600080fd5b50610245600160a060020a036004351660243561074d565b005b34801561025357600080fd5b5061025c610894565b60408051918252519081900360200190f35b61024561089a565b34801561028257600080fd5b5061025c6108fd565b34801561029757600080fd5b5061025c610904565b3480156102ac57600080fd5b50610245600160a060020a036004358116906024351660443561090a565b3480156102d657600080fd5b5060408051602060046024803582810135601f81018590048502860185019096528585526102459583359536956044949193909101919081908401838280828437509497506109f79650505050505050565b34801561033457600080fd5b5061033d610af6565b6040805160208082528351818301528351919283929083019185019080838360005b8381101561037757818101518382015260200161035f565b50505050905090810190601f1680156103a45780820380516001836020036101000a031916815260200191505b509250505060405180910390f35b3480156103be57600080fd5b5060408051602060046024803582810135601f810185900485028601850190965285855261024595833595369560449491939091019190819084018382808284375050604080516020601f89358b018035918201839004830284018301909452808352979a999881019791965091820194509250829150840183828082843750949750610b819650505050505050565b34801561045a57600080fd5b50610245610b86565b34801561046f57600080fd5b50610245600160a060020a0360043581169060243516604435610c0a565b34801561049957600080fd5b506101d9610c26565b3480156104ae57600080fd5b50610205600435610c36565b3480156104c657600080fd5b5061025c610c5a565b3480156104db57600080fd5b5061025c600160a060020a0360043516610c60565b3480156104fc57600080fd5b50610245610c93565b34801561051157600080fd5b50610205610d1c565b34801561052657600080fd5b5061052f610d33565b6040805160ff9092168252519081900360200190f35b34801561055157600080fd5b5061052f610d3c565b34801561056657600080fd5b5061052f610d4c565b34801561057b57600080fd5b5061025c610d55565b34801561059057600080fd5b50610245600160a060020a03600435166024351515610d5b565b3480156105b657600080fd5b5061052f610dde565b3480156105cb57600080fd5b506101d9610de7565b3480156105e057600080fd5b5061025c610df6565b3480156105f557600080fd5b50610245600160a060020a0360048035821691602480359091169160443591606435908101910135610dfc565b34801561062e57600080fd5b506101d9610e3f565b34801561064357600080fd5b50610245610e4d565b34801561065857600080fd5b5061052f610eb8565b34801561066d57600080fd5b5061052f610ec7565b34801561068257600080fd5b5061025c610ed5565b34801561069757600080fd5b506101d9600160a060020a0360043581169060243516610edb565b3480156106be57600080fd5b50610245600160a060020a0360043516610f36565b7bffffffffffffffffffffffffffffffffffffffffffffffffffffffff19811660009081526004602052604090205460ff165b919050565b6000818152600560205260408120548290600160a060020a0316151561073057600080fd5b5050600090815260066020526040902054600160a060020a031690565b6000818152600560205260408120548290600160a060020a0316338114806107985750600160a060020a038116600090815260086020908152604080832033845290915290205460ff165b15156107a357600080fd5b6000848152600560205260409020548490600160a060020a031615156107c857600080fd5b600085815260056020526040902054600160a060020a03908116945086168414156107f257600080fd5b600085815260066020526040902054600160a060020a031615801561081e5750600160a060020a038616155b1561082857600080fd5b6000858152600660209081526040918290208054600160a060020a031916600160a060020a038a8116918217909255835189815293519093918816927f8c5be1e5ebec7d5bd14f71427d1e84f3dd0314c0f7b2291e5b200ac8c7c3b925928290030190a3505050505050565b60135481565b601754610100900460ff16156108af57600080fd5b600154604160ff909116106108c357600080fd5b6011543414806108e0575060175462010000900460ff1615156001145b15156108eb57600080fd5b6108f3610fe7565b6108fb611036565b565b6009545b90565b60125481565b6000818152600560205260408120548290600160a060020a0316338114806109485750600082815260066020526040902054600160a060020a031633145b806109765750600160a060020a038116600090815260086020908152604080832033845290915290205460ff165b151561098157600080fd5b6000848152600560205260409020548490600160a060020a031615156109a657600080fd5b600085815260056020526040902054600160a060020a039081169450871684146109cf57600080fd5b600160a060020a03861615156109e457600080fd5b6109ee86866112d7565b50505050505050565b6109ff61135d565b600160a060020a03163314610a1357600080fd5b6000828152600f602052604081205460ff166003811115610a3057fe5b1415610a6557610a408282611552565b6017805460ff19811660ff91821660001901909116179055610a6061172b565b610af2565b60016000838152600f602052604090205460ff166003811115610a8457fe5b1415610a9457610a408282611744565b60026000838152600f602052604090205460ff166003811115610ab357fe5b1415610ac357610a408282611782565b60036000838152600f602052604090205460ff166003811115610ae257fe5b141561019d57610a4082826117af565b5050565b6002805460408051602060018416156101000260001901909316849004601f81018490048402820184019092528181529291830182828015610b795780601f10610b4e57610100808354040283529160200191610b79565b820191906000526020600020905b815481529060010190602001808311610b5c57829003601f168201915b505050505081565b505050565b6003546401000000009004600160a060020a03163314610ba557600080fd5b60035460c060020a900460ff161515610bbd57600080fd5b6003805478ff000000000000000000000000000000000000000000000000191690556040517f7805862f689e2f13df9f062ff482ad3ad112aca9e0847911ed832e158c525b3390600090a1565b610b8183838360206040519081016040528060008152506117e4565b60035460c060020a900460ff1681565b600081815260056020526040902054600160a060020a031680151561070657600080fd5b60155481565b6000600160a060020a0382161515610c7757600080fd5b50600160a060020a031660009081526007602052604090205490565b6003546401000000009004600160a060020a03163314610cb257600080fd5b60035460c060020a900460ff1615610cc957600080fd5b6003805478ff000000000000000000000000000000000000000000000000191660c060020a1790556040517f6985a02210a168e66602d3235cb6db0e70f92b3ba4d376a33c0f3d9434bff62590600090a1565b6003546401000000009004600160a060020a031681565b60015460ff1681565b6003546301000000900460ff1681565b60175460ff1681565b60115481565b600160a060020a0382161515610d7057600080fd5b336000818152600860209081526040808320600160a060020a03871680855290835292819020805460ff1916861515908117909155815190815290519293927f17307eab39ab6107e8899845ad3d59bd9653f200f220920489ca2b5937696c31929181900390910190a35050565b60035460ff1681565b60175462010000900460ff1681565b60165481565b610e3885858585858080601f016020809104026020016040519081016040528093929190818152602001838380828437506117e4945050505050565b5050505050565b601754610100900460ff1681565b6003546401000000009004600160a060020a03163314610e6c57600080fd5b601754610100900460ff161515610e8257600080fd5b6017805461ffff191690556040517f6426a220e8910820230d4f2e29cc2bee7c13058ff2524cbcc4d823ba49aa2f6690600090a1565b60035462010000900460ff1681565b600354610100900460ff1681565b60145481565b6000600160a060020a0383161515610ef257600080fd5b600160a060020a0382161515610f0757600080fd5b50600160a060020a03918216600090815260086020908152604080832093909416825291909152205460ff1690565b6003546401000000009004600160a060020a03163314610f5557600080fd5b600160a060020a0381161515610f6a57600080fd5b600354604051600160a060020a0380841692640100000000900416907f8be0079c531659141344cd1fd0a4f28419497f9722a3daafe3b4186f6b6457e090600090a360038054600160a060020a039092166401000000000277ffffffffffffffffffffffffffffffffffffffff0000000019909216919091179055565b601754610100900460ff1615610ffc57600080fd5b6017805461ff0019166101001790556040517fa8d1ea886eaf8bd3d113c770bf7af546123c70e235b0d036ff752d5e920a7b5690600090a1565b6060600061106260408051908101604052806004815260200160e060020a634950465302815250611a6d565b30311161106e57600080fd5b6000805460408051602060026001851615610100026000190190941693909304601f810184900484028201840190925281815292918301828280156110f45780601f106110c9576101008083540402835291602001916110f4565b820191906000526020600020905b8154815290600101906020018083116110d757829003601f168201915b5050505050915061119f8261111d600160009054906101000a900460ff1660010160ff16611cd5565b60408051808201909152601081527f275d2f436861707465725b4069643d270000000000000000000000000000000060208201526003546111669062010000900460ff16611cd5565b60408051808201909152600e81527f275d2f56657273655b4069643d270000000000000000000000000000000000006020820152611dc8565b6003549092506111f79083906111be906301000000900460ff16611cd5565b60408051808201909152600a81527f275d2f74657874282929000000000000000000000000000000000000000000006020820152612029565b915061122560408051908101604052806004815260200160e060020a63495046530281525083601254612060565b6017805460ff8082166001011660ff19918216179091556000828152600f6020908152604080832080549094169093556010815290829020805433600160a060020a03199091161790558151818152808201919091527f51756572792073656e743b206177616974696e6720726573706f6e73652e2e2e8183015290519192507fd7789a3deb1d0944b7966c5d18037fc5b3a0a17236de9e7c20fe3a6345167295916060918190039190910190a15050565b600081815260056020526040902054600160a060020a03166112f98183612465565b61130381836124c2565b61130d838361256b565b82600160a060020a031681600160a060020a03167fddf252ad1be2c89b69c2b068fc378daa952ba7f163c4a11628f55a4df523b3ef846040518082815260200191505060405180910390a3505050565b600a54600090600160a060020a0316158061138a5750600a5461138890600160a060020a03166125ef565b155b1561139b5761139960006125f3565b505b600a60009054906101000a9004600160a060020a0316600160a060020a03166338cc48316040518163ffffffff1660e060020a028152600401602060405180830381600087803b1580156113ee57600080fd5b505af1158015611402573d6000803e3d6000fd5b505050506040513d602081101561141857600080fd5b5051600b54600160a060020a039081169116146114ce57600a60009054906101000a9004600160a060020a0316600160a060020a03166338cc48316040518163ffffffff1660e060020a028152600401602060405180830381600087803b15801561148257600080fd5b505af1158015611496573d6000803e3d6000fd5b505050506040513d60208110156114ac57600080fd5b5051600b8054600160a060020a031916600160a060020a039092169190911790555b600b60009054906101000a9004600160a060020a0316600160a060020a031663c281d19e6040518163ffffffff1660e060020a028152600401602060405180830381600087803b15801561152157600080fd5b505af1158015611535573d6000803e3d6000fd5b505050506040513d602081101561154b57600080fd5b5051905090565b61155a61355b565b604080516002805460a06020601f6000196101006001861615020190931684900492830181900402840181019094526080830181815260009484939192908401828280156115e95780601f106115be576101008083540402835291602001916115e9565b820191906000526020600020905b8154815290600101906020018083116115cc57829003601f168201915b505050918352505060035460ff620100008204811660208401526301000000909104166040820152606090810185905281015151909250151561162857fe5b60098054600181810180845560009390935284518051919392869260039091027f6e1540171b6c0c960b71a7020d9f60077f6af931a8bbf590da0223dacf75c7af019161167a9183916020019061358a565b50602082810151600183018054604086015160ff9081166101000261ff00199190941660ff199092169190911716919091179055606083015180516116c5926002850192019061358a565b50505060008681526010602052604090205491900391506116ef90600160a060020a031682612603565b6000848152600f60209081526040808320805460ff19169055601090915290208054600160a060020a031916905561172561286b565b50505050565b60175460ff16151561173f5761173f612873565b6108fb565b61174d816128e5565b6003805460ff929092166101000261ff00199092169190911790556000828152600f60205260409020805460ff191690555050565b805161179590600290602084019061358a565b50506000908152600f60205260409020805460ff19169055565b6117b8816128e5565b6003805460ff9290921660ff199283161790556000838152600f60205260409020805490911690555050565b60008281526005602052604081205481908490600160a060020a0316338114806118245750600082815260066020526040902054600160a060020a031633145b806118525750600160a060020a038116600090815260086020908152604080832033845290915290205460ff165b151561185d57600080fd5b6000868152600560205260409020548690600160a060020a0316151561188257600080fd5b600087815260056020526040902054600160a060020a039081169550891685146118ab57600080fd5b600160a060020a03881615156118c057600080fd5b6118ca88886112d7565b6118dc88600160a060020a03166128f2565b15611a625787600160a060020a031663f0b9e5ba8a89896040518463ffffffff1660e060020a0281526004018084600160a060020a0316600160a060020a0316815260200183815260200180602001828103825283818151815260200191508051906020019080838360005b83811015611960578181015183820152602001611948565b50505050905090810190601f16801561198d5780820380516001836020036101000a031916815260200191505b50945050505050602060405180830381600087803b1580156119ae57600080fd5b505af11580156119c2573d6000803e3d6000fd5b505050506040513d60208110156119d857600080fd5b5051604080517f6f6e455243373231526563656976656428616464726573732c75696e7432353681527f2c62797465732900000000000000000000000000000000000000000000000000602082015290519081900360270190209094507bffffffffffffffffffffffffffffffffffffffffffffffffffffffff19808616911614611a6257600080fd5b505050505050505050565b600a54600090600160a060020a03161580611a9a5750600a54611a9890600160a060020a03166125ef565b155b15611aab57611aa960006125f3565b505b600a60009054906101000a9004600160a060020a0316600160a060020a03166338cc48316040518163ffffffff1660e060020a028152600401602060405180830381600087803b158015611afe57600080fd5b505af1158015611b12573d6000803e3d6000fd5b505050506040513d6020811015611b2857600080fd5b5051600b54600160a060020a03908116911614611bde57600a60009054906101000a9004600160a060020a0316600160a060020a03166338cc48316040518163ffffffff1660e060020a028152600401602060405180830381600087803b158015611b9257600080fd5b505af1158015611ba6573d6000803e3d6000fd5b505050506040513d6020811015611bbc57600080fd5b5051600b8054600160a060020a031916600160a060020a039092169190911790555b600b546040517f524f3889000000000000000000000000000000000000000000000000000000008152602060048201818152855160248401528551600160a060020a039094169363524f388993879383926044909201919085019080838360005b83811015611c57578181015183820152602001611c3f565b50505050905090810190601f168015611c845780820380516001836020036101000a031916815260200191505b5092505050602060405180830381600087803b158015611ca357600080fd5b505af1158015611cb7573d6000803e3d6000fd5b505050506040513d6020811015611ccd57600080fd5b505192915050565b60606000808281851515611d1e5760408051808201909152600181527f300000000000000000000000000000000000000000000000000000000000000060208201529450611dbf565b8593505b8315611d3957600190920191600a84049350611d22565b826040519080825280601f01601f191660200182016040528015611d67578160200160208202803883390190505b5091505060001982015b8515611dbb57815160001982019160f860020a6030600a8a060102918491908110611d9857fe5b906020010190600160f860020a031916908160001a905350600a86049550611d71565b8194505b50505050919050565b6060806060806060806060806000808e98508d97508c96508b95508a94508451865188518a518c51010101016040519080825280601f01601f191660200182016040528015611e21578160200160208202803883390190505b50935083925060009150600090505b8851811015611e8e578881815181101515611e4757fe5b90602001015160f860020a900460f860020a028383806001019450815181101515611e6e57fe5b906020010190600160f860020a031916908160001a905350600101611e30565b5060005b8751811015611ef0578781815181101515611ea957fe5b90602001015160f860020a900460f860020a028383806001019450815181101515611ed057fe5b906020010190600160f860020a031916908160001a905350600101611e92565b5060005b8651811015611f52578681815181101515611f0b57fe5b90602001015160f860020a900460f860020a028383806001019450815181101515611f3257fe5b906020010190600160f860020a031916908160001a905350600101611ef4565b5060005b8551811015611fb4578581815181101515611f6d57fe5b90602001015160f860020a900460f860020a028383806001019450815181101515611f9457fe5b906020010190600160f860020a031916908160001a905350600101611f56565b5060005b8451811015612016578481815181101515611fcf57fe5b90602001015160f860020a900460f860020a028383806001019450815181101515611ff657fe5b906020010190600160f860020a031916908160001a905350600101611fb8565b50909d9c50505050505050505050505050565b606061205884848460206040519081016040528060008152506020604051908101604052806000815250611dc8565b949350505050565b600a546000908190600160a060020a0316158061208f5750600a5461208d90600160a060020a03166125ef565b155b156120a05761209e60006125f3565b505b600a60009054906101000a9004600160a060020a0316600160a060020a03166338cc48316040518163ffffffff1660e060020a028152600401602060405180830381600087803b1580156120f357600080fd5b505af1158015612107573d6000803e3d6000fd5b505050506040513d602081101561211d57600080fd5b5051600b54600160a060020a039081169116146121d357600a60009054906101000a9004600160a060020a0316600160a060020a03166338cc48316040518163ffffffff1660e060020a028152600401602060405180830381600087803b15801561218757600080fd5b505af115801561219b573d6000803e3d6000fd5b505050506040513d60208110156121b157600080fd5b5051600b8054600160a060020a031916600160a060020a039092169190911790555b600b54604080517f2ef3accc0000000000000000000000000000000000000000000000000000000081526024810186905260048101918252875160448201528751600160a060020a0390931692632ef3accc9289928892829160640190602086019080838360005b8381101561225357818101518382015260200161223b565b50505050905090810190601f1680156122805780820380516001836020036101000a031916815260200191505b509350505050602060405180830381600087803b1580156122a057600080fd5b505af11580156122b4573d6000803e3d6000fd5b505050506040513d60208110156122ca57600080fd5b50519050670de0b6b3a76400003a8402018111156122eb576000915061245d565b600b546040517fc51be90f00000000000000000000000000000000000000000000000000000000815260006004820181815260648301879052608060248401908152895160848501528951600160a060020a039095169463c51be90f948794938c938c938c93604481019160a49091019060208801908083838c5b8381101561237e578181015183820152602001612366565b50505050905090810190601f1680156123ab5780820380516001836020036101000a031916815260200191505b50838103825285518152855160209182019187019080838360005b838110156123de5781810151838201526020016123c6565b50505050905090810190601f16801561240b5780820380516001836020036101000a031916815260200191505b5096505050505050506020604051808303818588803b15801561242d57600080fd5b505af1158015612441573d6000803e3d6000fd5b50505050506040513d602081101561245857600080fd5b505191505b509392505050565b60008181526006602090815260408083208054600160a060020a031916905580518481529051600160a060020a038616927f8c5be1e5ebec7d5bd14f71427d1e84f3dd0314c0f7b2291e5b200ac8c7c3b925928290030190a35050565b600081815260056020526040902054600160a060020a038381169116146124e857600080fd5b600160a060020a0382166000908152600760205260408120541161250857fe5b600160a060020a03821660009081526007602052604090205461253290600163ffffffff6128fa16565b600160a060020a039092166000908152600760209081526040808320949094559181526005909152208054600160a060020a0319169055565b600081815260056020526040902054600160a060020a03161561258d57600080fd5b60008181526005602090815260408083208054600160a060020a031916600160a060020a038716908117909155835260079091529020546125cf90600161290c565b600160a060020a0390921660009081526007602052604090209190915550565b3b90565b60006125fd612922565b92915050565b600160a060020a038216151561261557fe5b600081815260056020526040902054600160a060020a03161561263457fe5b61263e8282612c4a565b7ffbecfb053d2f151b59371e34072d9aa8d7ec310b227c3ccce2636d0352bbf1378260098381548110151561266f57fe5b906000526020600020906003020160000160098481548110151561268f57fe5b60009182526020909120600160039092020101546009805460ff90921691869081106126b757fe5b906000526020600020906003020160010160019054906101000a900460ff166009868154811015156126e557fe5b600091825260209182902060408051600160a060020a038916815260ff80881692820192909252908516606082015260a0938101848152875460026000196101006001841615020190911681900495830186905260039094029092019290920192608083019060c08401908890801561279f5780601f106127745761010080835404028352916020019161279f565b820191906000526020600020905b81548152906001019060200180831161278257829003601f168201915b50508381038252845460026000196101006001841615020190911604808252602090910190859080156128135780601f106127e857610100808354040283529160200191612813565b820191906000526020600020905b8154815290600101906020018083116127f657829003601f168201915b505097505050505050505060405180910390a1604080518281529051600160a060020a038416916000917fddf252ad1be2c89b69c2b068fc378daa952ba7f163c4a11628f55a4df523b3ef9181900360200190a35050565b6108fb612c54565b601754610100900460ff16151561288957600080fd5b6017805461ff00191690556040517f6426a220e8910820230d4f2e29cc2bee7c13058ff2524cbcc4d823ba49aa2f6690600090a166d529ae9e8600003031106108fb576017805462ff00001916620100001790556108fb612c97565b60006125fd826000612cad565b6000903b1190565b60008282111561290657fe5b50900390565b60008282018381101561291b57fe5b9392505050565b600080612942731d3b2638a7cc9f2cb3d298a3da7a90b67e5506ed6125ef565b11156129b357600a8054600160a060020a031916731d3b2638a7cc9f2cb3d298a3da7a90b67e5506ed17905560408051808201909152600b81527f6574685f6d61696e6e657400000000000000000000000000000000000000000060208201526129ab90612e1f565b506001610901565b60006129d273c03a2615d5efaf5f49f60b7bb6583eaec212fdf16125ef565b1115612a3b57600a8054600160a060020a03191673c03a2615d5efaf5f49f60b7bb6583eaec212fdf117905560408051808201909152600c81527f6574685f726f707374656e33000000000000000000000000000000000000000060208201526129ab90612e1f565b6000612a5a73b7a07bcf2ba2f2703b24c0691b5278999c59ac7e6125ef565b1115612ac357600a8054600160a060020a03191673b7a07bcf2ba2f2703b24c0691b5278999c59ac7e17905560408051808201909152600981527f6574685f6b6f76616e000000000000000000000000000000000000000000000060208201526129ab90612e1f565b6000612ae273146500cfd35b22e4a392fe0adc06de1a1368ed486125ef565b1115612b4b57600a8054600160a060020a03191673146500cfd35b22e4a392fe0adc06de1a1368ed4817905560408051808201909152600b81527f6574685f72696e6b65627900000000000000000000000000000000000000000060208201526129ab90612e1f565b6000612b6a736f485c8bf6fc43ea212e93bbf8ce046c7f1cb4756125ef565b1115612b9e5750600a8054600160a060020a031916736f485c8bf6fc43ea212e93bbf8ce046c7f1cb4751790556001610901565b6000612bbd7320e12a1f859b3feae5fb2a0a32c18f5a65555bbf6125ef565b1115612bf15750600a8054600160a060020a0319167320e12a1f859b3feae5fb2a0a32c18f5a65555bbf1790556001610901565b6000612c107351efaf4c8b3c9afbd5ab9f4bbc82784ab6ef8faa6125ef565b1115612c445750600a8054600160a060020a0319167351efaf4c8b3c9afbd5ab9f4bbc82784ab6ef8faa1790556001610901565b50600090565b610af2828261256b565b60038054600160ff63010000008084048216929092018116820263ff00000019909316929092179283905561010083048216920416111561173f5761173f612e32565b612c9f61089a565b6017805462ff000019169055565b6000828180805b8351811015612e025783517f300000000000000000000000000000000000000000000000000000000000000090859083908110612ced57fe5b90602001015160f860020a900460f860020a02600160f860020a03191610158015612d63575083517f390000000000000000000000000000000000000000000000000000000000000090859083908110612d4357fe5b90602001015160f860020a900460f860020a02600160f860020a03191611155b15612dbc578115612d8257851515612d7a57612e02565b600019909501945b600a8302925060308482815181101515612d9857fe5b90602001015160f860020a900460f860020a0260f860020a90040383019250612dfa565b8381815181101515612dca57fe5b90602001015160f860020a900460f860020a02600160f860020a031916602e60f860020a021415612dfa57600191505b600101612cb4565b6000861115612e145785600a0a830292505b509095945050505050565b8051610af290600c90602084019061358a565b600380546201000063ff0000001990911663010000001781810460ff9081166001018116830262ff0000199092169190911792839055828116919092049091161115612e805761173f612e88565b6108fb612f13565b6003805462ff000019166201000017905560018054604160ff918216909201161015612ee057612eb6613145565b612ebe6132c8565b612ec661344b565b6001805460ff80821683011660ff199091161790556108fb565b6001805460ff80821683011660ff19909116179055612f0160026000613608565b6003805463ffffffff191690556108fb565b60606000612f3f60408051908101604052806004815260200160e060020a634950465302815250611a6d565b303111612f4b57600080fd5b6000805460408051602060026001851615610100026000190190941693909304601f81018490048402820184019092528181529291830182828015612fd15780601f10612fa657610100808354040283529160200191612fd1565b820191906000526020600020905b815481529060010190602001808311612fb457829003601f168201915b5050505050915061307c82612ffa600160009054906101000a900460ff1660010160ff16611cd5565b60408051808201909152601081527f275d2f436861707465725b4069643d270000000000000000000000000000000060208201526003546130439062010000900460ff16611cd5565b60408051808201909152601981527f275d2f6e756d6265724f665665727365732f74657874282929000000000000006020820152611dc8565b91506130aa60408051908101604052806004815260200160e060020a63495046530281525083601554612060565b6017805460ff808216600190810190911660ff19928316179092556000838152600f60205260409020805493945091921682805b0217905550604080516020808252808201527f51756572792073656e743b206177616974696e6720726573706f6e73652e2e2e8183015290517fd7789a3deb1d0944b7966c5d18037fc5b3a0a17236de9e7c20fe3a63451672959181900360600190a15050565b6060600061317160408051908101604052806004815260200160e060020a634950465302815250611a6d565b30311161317d57600080fd5b6000805460408051602060026001851615610100026000190190941693909304601f810184900484028201840190925281815292918301828280156132035780601f106131d857610100808354040283529160200191613203565b820191906000526020600020905b8154815290600101906020018083116131e657829003601f168201915b5050600154939550613260938693506132279250600260ff91821601169050611cd5565b60408051808201909152601381527f275d2f626f6f6b4e616d652f74657874282929000000000000000000000000006020820152612029565b915061328e60408051908101604052806004815260200160e060020a63495046530281525083601354612060565b6017805460ff19808216600160ff9384168101909316179092556000838152600f60205260409020805493945060029390921690836130de565b606060006132f460408051908101604052806004815260200160e060020a634950465302815250611a6d565b30311161330057600080fd5b6000805460408051602060026001851615610100026000190190941693909304601f810184900484028201840190925281815292918301828280156133865780601f1061335b57610100808354040283529160200191613386565b820191906000526020600020905b81548152906001019060200180831161336957829003601f168201915b50506001549395506133e3938693506133aa9250600260ff91821601169050611cd5565b60408051808201909152601b81527f275d2f6e756d6265724f6643686170746572732f7465787428292900000000006020820152612029565b915061341160408051908101604052806004815260200160e060020a63495046530281525083601454612060565b6017805460ff19808216600160ff9384168101909316179092556000838152600f60205260409020805493945060039390921690836130de565b6060600061347760408051908101604052806004815260200160e060020a634950465302815250611a6d565b30311161348357600080fd5b6000805460408051602060026001851615610100026000190190941693909304601f810184900484028201840190925281815292918301828280156135095780601f106134de57610100808354040283529160200191613509565b820191906000526020600020905b8154815290600101906020018083116134ec57829003601f168201915b505060015493955061352d93869350612ffa9250600260ff91821601169050611cd5565b91506130aa60408051908101604052806004815260200160e060020a63495046530281525083601654612060565b60806040519081016040528060608152602001600060ff168152602001600060ff168152602001606081525090565b828054600181600116156101000203166002900490600052602060002090601f016020900481019282601f106135cb57805160ff19168380011785556135f8565b828001600101855582156135f8579182015b828111156135f85782518255916020019190600101906135dd565b5061360492915061364f565b5090565b50805460018160011615610100020316600290046000825580601f1061362e575061364c565b601f01602090049060005260206000209081019061364c919061364f565b50565b61090191905b8082111561360457600081556001016136555600a165627a7a7230582063cf663faa484787108ac4ae484d63b036bf7fe8271a36bf60ddb34ae5e75cd20029",
  "source": "/**\n * @file BibleTokenMinting.sol\n * @author John DeBord <i@johndebord.tk>\n * @date 2018\n */\n\npragma solidity ^0.4.20;\n\nimport \"./BibleTokenEnumerable.sol\";\nimport \"../installed_contracts/oraclize-api/contracts/usingOraclize.sol\";\n\n/**\n * @title BibleTokenMinting\n * @dev This contract is where all the action takes place. It contains all the necessary functions\n * and variables for the minting process to take place; heavily utilizing the Oraclize API.\n */\ncontract BibleTokenMinting is\n    BibleTokenEnumerable,\n    usingOraclize\n{\n    \n    /**\n    * @dev This enumeration is used specifically for the `__callback` function; when an Oraclize query\n    * is sent out the function sending the store the query type to the mapping `queryToType`.\n    * Thus when Oraclize calls the `__callback` function it will know exactly which functions to execute;\n    * whether that be minting a token or updating certain state variables.\n    */\n    enum QueryType {GET_VERSE, GET_CHAPTER_VERSES, GET_BOOK_NAME, GET_NUMBER_OF_CHAPTERS}\n    \n    /**\n    * @dev This mapping is used hand-in-hand with the enumeration `QueryType`, so that the query types\n    * can be effectively stored, looked-up, and deleted upon completion of whatever functionaility was called.\n    */\n    mapping (bytes32 => QueryType) queryToType;\n    \n    /**\n    * @dev This mapping is very important; without it, there would be no way for a BibleToken to get\n    * minted to any address. Thus this mappng is used to keep track of the query Ids and their associated\n    * addresses (`msg.sender`). The Id will get written to this mapping upon a successfull query. And will\n    * then get deleted upon completion of the minting process.\n    */\n    mapping (bytes32 => address) queryToSender;\n\n    /**\n    * @dev This variable is for the Ether that must be sent in order to cover the cost of using the\n    * Oraclize service.\n    */\n    uint256 public price = 0.06 ether;\n    \n    /**\n    * @dev These variables are for the gas limites of all the Oraclize queries in this contract.\n    */\n    uint256 public mintVerseGasLimit = 2000000;\n    uint256 public updateBookNameGasLimit = 1000000;\n    uint256 public updateNumberOfChaptersGasLimit = 1000000;\n    uint256 public updateChapterVersesIGasLimit = 1000000;\n    uint256 public updateChapterVersesIIGasLimit = 1000000;\n    \n    /**\n    * @dev This variable is used to sustain the contract's halting functionality in between tokens\n    * getting minted. When an Oraclize query is sent out this counter is incremented.\n    * When the `__callback` completes its duty the counter will get decremented.\n    * After it gets decremented this variable gets checked if there are any other Oraclize queries that\n    * have not yet completed. The counter will be == 0 once all `__callbacks` have been completed;\n    * otherwise this variable will be non-zero.\n    */\n    uint8 public queryCount = 0;\n    \n    /**\n    * @dev This variable controls how the contract halts other mint calls while it is already currently\n    * minting a verse. It acts just like the `pause()` function, except that it is purely internal,\n    * so that no one from the outside can halt the minting process whenever they want.\n    * This variable works hand-in-hand with the halt modifier and halt function.\n    */\n    bool public halted = false;\n    \n    /**\n    * @dev This variable acts as a flag so that the contract can know if the contract itself has the\n    * permission to mint a token. Permission is granted (`contractIsMinting` is set to true) when\n    * the contract determines that it has enough Ether to mint a verse; which happens right after the\n    * contract is unhalted. This condition is checked and set in the `unhalt()` function and is set\n    * back to false in the `ownerMint()` function.\n    */\n    bool public contractCanMint = false;\n    \n    /**\n    * @dev Emits when a new BibleToken is minted.\n    * @param _owner The owner of the BibleToken that has been minted.\n    * @param _bookName The given book name in the Bible.\n    * @param _chapterNumber The given chapter number in the Bible.\n    * @param _verseNumber The given verse number in the Bible.\n    * @param _verseText The text of that particular verse in the Bible.\n    */\n    event VerseMinted(\n        address _owner,\n        string _bookName,\n        uint8 _chapterNumber,\n        uint8 _verseNumber,\n        string _verseText\n    );\n    \n    /**\n    * @dev Emits when a new Oraclize query is sent.\n    * @param _description The description of the Oraclize query.\n    */\n    event OraclizeQuery(\n        string _description\n    );\n    \n    /**\n    * @dev Emits when the contract has been halted to provide time for Oraclize to process the\n    * data and for the contract to mint the BibleToken without any duplicate verses being written\n    * to the Ethereum blockchain.\n    */\n    event Halt();\n    \n    /**\n    * @dev Emits when the contract has been unhalted, so that the next verse can be minted.\n    */\n    event Unhalt();\n    \n    /**\n    * @dev Modifier that controls if the Bible has been fully minted to the blockchain.\n    * If it has, then minting a verse is no longer possible.\n    */\n    modifier booksIncomplete() {\n        require(booksCompleted < totalBooks);\n        _;\n    }\n    \n    /**\n    * @dev Modifier that checks to see is the contract is currently in the process of it being halted.\n    * If it is halted, you will not be able to mint a verse.\n    * Once the verse has been minted and all state variable have been updated, then will you be able to mint the next verse.\n    */\n    modifier whenNotHalted() {\n        require(!halted);\n        _;\n    }\n\n    /**\n    * @dev Modifier that checks to see if the contract is currently in the process of being halted.\n    * If it is not halted halted, then you will be able to mint the next verse.\n    */\n    modifier whenHalted() {\n        require(halted);\n        _;\n    }\n    \n    /**\n    * @dev This function halts the contract until the verse has been minted/written to the blockchain.\n    * It is an internal function, so it can only be called from within the contract and not outside\n    * from any individual.\n    */\n    function halt()\n        whenNotHalted\n        internal\n    {\n        halted = true;\n        Halt();\n    }\n\n    /**\n    * @dev This function unhalts the contract to allow the next verse to be minted/written to the blockchain.\n    * @notice This function also checks to see if the contract's balance is >= 3 Ether, if it is then the contract\n    * performs the `ownerMint()` function.\n    */\n    function unhalt()\n        whenHalted\n        internal\n    {\n        halted = false;\n        Unhalt();\n\n\t// Immediately after unhalting the contract check to see if the contract has enough funds\n\t// to be able to mint a verse itself.\n        if(this.balance >= 0.06 ether) {\n            contractCanMint = true;\n            ownerMint();\n        }\n    }\n    \n    /**\n    * @dev Because funds will be accumulated whilst the Bible is being written to the blockchain\n    * (around 400 Ether total), all Ether accumulated by this contract will be reinvested into\n    * minting more verses to the blockchain. After the contract has been unhalted a check will be\n    * performed to see what the current balance of the contract is. If the balance is >= 0.03 Ether,\n    * the contract will execute another `mint()` function call. Thus more BibleTokens will get minted.\n    */\n    function ownerMint()\n        internal\n    {\n        mint();\n        contractCanMint = false;\n    }\n    \n    /**\n    * @dev This function is needed just in case any unforeseen Oraclize complications are run into.\n    * Only the owner of the contract can access this function. The usage is after the contract state\n    * variables have been audited by the owner, the owner will then unhalt the contract and also reset.\n    * the current query count. This function should never be used, but it is still a must to have.\n    */\n    function ownerUnhalt()\n        onlyOwner\n        whenHalted\n        external\n    {\n        halted = false;\n        queryCount = 0;\n        Unhalt();\n    }\n    \n    /**\n    * @dev This function controls when the contract is to be unhalted. `queryCount` initially starts\n    * off at 0. But is incremented each time there is an Oraclize query.\n    * Everytime Oraclize completes a `__callback` `queryCount` gets decremented by 1.\n    * Once `queryCount` is 0 it is then safe to unhalt the contract.\n    */\n    function callbackCheck()\n        internal\n    {\n        if(queryCount == 0) {\n            unhalt();\n        } else {\n            return;\n        }\n    }\n    \n    /**\n    * @dev This is where all the minting action takes place. Since a BibleToken cannot be minted\n    * unless it has the appropriate data, and that is only possible after the Oraclize query.\n    * Thus when someone calls the mint function, they will have to wait until Oraclize processes the query/queries\n    * before they can access their BibleToken; which should take at most take 1 minute according to https://ethgasstation.info/.\n    * @notice Depending on the `QueryType` a different branch of execution will follow; for example if the `QueryType`\n    * is `GET_VERSE`, the `__callback` will perform the operations for minting the verse returned by `_result`.\n    * @param _myid The ID of the query.\n    * @param _result The result of the Oraclize query.\n    */\n    function __callback(\n        bytes32 _myid,\n        string _result\n    )\n        public\n    {\n        require(msg.sender == oraclize_cbAddress());\n        \n        if(queryToType[_myid] == QueryType.GET_VERSE) {\n            _mintBibleToken(_myid, _result);\n            --queryCount;\n            callbackCheck();\n        } else if(queryToType[_myid] == QueryType.GET_CHAPTER_VERSES) {\n            _updateChapterVerses(_myid, _result);\n            --queryCount;\n            callbackCheck();\n        } else if(queryToType[_myid] == QueryType.GET_BOOK_NAME) {\n            _updateBookName(_myid, _result);\n            --queryCount;\n            callbackCheck();\n        } else if(queryToType[_myid] == QueryType.GET_NUMBER_OF_CHAPTERS) {\n            _updateNumberOfChapters(_myid, _result);\n            --queryCount;\n            callbackCheck();\n        } else {\n            revert(); // ?\n        }\n    }\n    \n    /**\n    * @dev This is the function to call when an address wishes to mint the next Bible verse.\n    * It will not compute if the whole Bible has been minted to the blockchain, because then there will be\n    * no other verses left to mint. Also, the address must send the appropriate payment to this contract,\n    * because using the Oraclize service is not free. The amount sent must be the maximum needed to mint\n    * any given verse in the Bible; the longest being Esther 8:9, at a total character count of 528.\n    */\n    function mint()\n        whenNotHalted\n        booksIncomplete\n        payable\n        public\n    {\n        require(msg.value == price || contractCanMint == true);\n        \n        halt();\n        \n        myOraclizeMintVerse();\n    }\n    \n    /**\n    * @dev This function does the nitty-gritty operations of constructing the BibleToken\n    * and then pushing it to the array `tokens` that holds all of the BibleTokens.\n    * After which the `queryToSender` and `queryToType` variables get deleted.\n    * @param _myid The ID of the query.\n    * @param _verseText The Bible verse that is retrieved.\n    */\n    function _mintBibleToken(\n        bytes32 _myid,\n        string _verseText\n    )\n        internal\n    {\n        Token memory token = Token({\n            bookName: currentBookName,\n            chapterNumber: currentChapterNumber,\n            verseNumber: currentVerseNumber,\n            verseText: _verseText\n        });\n        \n        assert(bytes(token.verseText).length != 0);\n        \n        uint256 tokenIndex = tokens.push(token) - 1;\n        _mint(queryToSender[_myid], tokenIndex);\n        delete queryToType[_myid];\n        delete queryToSender[_myid];\n        \n        update();\n    }\n    \n    /**\n    * @dev This function does even more of the nitty-gritty work of the minting process;\n    * updating the data structures relating to ownership of the particular BibleToken.\n    * @param _to The address to the owner of the BibleToken.\n    * @param _tokenIndex The index of the given BibleToken in the `tokens` array.\n    */\n    function _mint(\n        address _to,\n        uint256 _tokenIndex\n    )\n        internal\n    {\n        assert(_to != address(0));\n        assert(indexToOwner[_tokenIndex] == address(0));\n\n        _addNFToken(_to, _tokenIndex);\n\n        VerseMinted(\n            _to,\n            tokens[_tokenIndex].bookName,\n            tokens[_tokenIndex].chapterNumber,\n            tokens[_tokenIndex].verseNumber,\n            tokens[_tokenIndex].verseText\n        );\n        \n        Transfer(address(0), _to, _tokenIndex);\n    }\n    \n    /**\n    * @dev The purpose of this function is to keep a logically consistent flow of the inheritance structure of this contract.\n    * @param _to The address to the owner of the BibleToken.\n    * @param _tokenIndex The index of the given BibleToken in the `tokens` array.\n    */\n    function _addNFToken(\n        address _to,\n        uint256 _tokenIndex\n    )\n        internal\n    {\n        super.addNFToken(_to, _tokenIndex);\n    }\n    \n    /**\n    * @dev This function starts the update process that gets called at the end of minting a BibleToken.\n    * This is very important to do so that the contract can always keep the appropriate state variables for\n    * storing newly minted BibleTokens and for constructing Oraclize queries.\n    */\n    function update()\n        internal\n    {\n        updateVerse();\n    }\n    \n    /**\n    * @dev This function updates the `currentVerseNumber` and then checks to see if it has surpassed\n    * the number of verses that are in the given chapter. If it exceeds that specific amount,\n    * it passes execution on to the `updateChapter()` function.\n    */\n    function updateVerse()\n        internal\n    {\n        ++currentVerseNumber;\n        if(currentVerseNumber > currentChapterVersesNumber) {\n            updateChapter();\n        }\n        else {\n            return;\n        }\n    }\n    \n    /**\n    * @dev This function updates the `currentChapterNumber` and resets the `currentVerseNumber` to 1.\n    * If the `currentChapterNumber` exceeds then execeution is passed on to the `updateBook()` function.\n    */\n    function updateChapter()\n        internal\n    {\n        currentVerseNumber = 1;\n        ++currentChapterNumber;\n        if(currentChapterNumber > currentNumberOfChapters) {\n            updateBook();\n        } else {\n            myOraclizeUpdateChapterVersesI();\n        }\n    }\n    \n    /**\n    * @dev This function is called once a whole book has been minted to the blockchain.\n    * Thus the contract must update the state variables to the next book in the Bible.\n    * If every book has been completed, then all state variables are deleted and it will be no\n    * longer possible to mint another verse to the blockchain through this contract.\n    */\n    function updateBook()\n        internal\n    {\n        currentChapterNumber = 1;\n        if((booksCompleted + 1) < totalBooks) {\n            myOraclizeUpdateBookName();\n            myOraclizeUpdateNumberOfChapters();\n            myOraclizeUpdateChapterVersesII();\n            ++booksCompleted;\n        } else {\n            ++booksCompleted;\n            delete currentBookName;\n            delete currentNumberOfChapters;\n            delete currentChapterVersesNumber;\n            delete currentChapterNumber;\n            delete currentVerseNumber;\n            return;\n        }\n    }\n    \n    /**\n    * @dev This function updates the name of the book in the Bible that is retrieved.\n    * This function is necessary so that the contract stores the right name in a minted BibleToken.\n    * After which the `queryToType` variable get deleted.\n    * @param _myid The ID of the query.\n    * @param _bookName The name of the book of the Bible that is retrieved.\n    */\n    function _updateBookName(\n        bytes32 _myid,\n        string _bookName\n    )\n        internal\n    {\n        currentBookName = _bookName;\n        delete queryToType[_myid];\n        return;\n    }\n    \n    /**\n    * @dev This function updates the number of chapters in the given book in the Bible that is retrieved.\n    * This function is necessary so that contract knows when to update the state variables when\n    * every chapter in this book as been minted to the blockchain.\n    * After which the `queryToType` variable get deleted.\n    * @param _myid The ID of the query.\n    * @param _numberOfChapters The number of chapters in the given book that is retrieved.\n    */\n    function _updateNumberOfChapters(\n        bytes32 _myid,\n        string _numberOfChapters\n    )\n        internal\n    {\n        currentNumberOfChapters = uint8(parseInt(_numberOfChapters));\n        delete queryToType[_myid];\n        return;\n    }\n    \n    /**\n    * @dev This function updates the number of verses in a given chapter. This is necessary for the contract\n    * to know when it needs to get the data for the next chapter and for the contract to be able to store the\n    * appropriate verse number in a minted BibleToken.\n    * After which the `queryToType` variable get deleted.\n    * @param _myid The ID of the query.\n    * @param _chapterVerses The number of verses in the chapter that is retrieved.\n    */\n    function _updateChapterVerses(\n        bytes32 _myid,\n        string _chapterVerses\n    )\n        internal\n    {\n        currentChapterVersesNumber = uint8(parseInt(_chapterVerses));\n        delete queryToType[_myid];\n        return;\n    }\n    \n    /**\n    * @dev This function constructs the query string necessary for retrieving the text of a given Bible verse.\n    * Once the string has been constructed using the `strConcat()` function provided by Oraclize, the\n    * Oraclize query is sent out; afterwhich the `queryToType` and `queryToSender` variables are stored to\n    * keep track of the query.\n    */\n    function myOraclizeMintVerse()\n        internal\n    {\n        require(this.balance > oraclize_getPrice(\"IPFS\"));\n        \n        string memory query = url;\n        \n        query = strConcat(\n            query,\n            uint2str(booksCompleted + 1),\n            \"']/Chapter[@id='\",\n            uint2str(currentChapterNumber),\n            \"']/Verse[@id='\"\n        );\n        query = strConcat(\n            query,\n            uint2str(currentVerseNumber),\n            \"']/text())\"\n        );\n        \n        bytes32 id = oraclize_query(\"IPFS\", query, mintVerseGasLimit);\n        ++queryCount;\n        queryToType[id] = QueryType.GET_VERSE;\n        queryToSender[id] = msg.sender;\n        \n        OraclizeQuery(\"Query sent; awaiting response...\");\n    }\n    \n    /**\n    * @dev This function constructs the query string necessary for retrieving a given book name in the Bible.\n    * Once the string has been constructed using the `strConcat()` function provided by Oraclize, the\n    * Oraclize query is sent out; afterwhich the `queryToType` variable is stored to keep track of the query.\n    */\n    function myOraclizeUpdateBookName()\n        internal\n    {\n        require(this.balance > oraclize_getPrice(\"IPFS\"));\n        \n        string memory query = url;\n        \n        query = strConcat(\n            query,\n            uint2str(booksCompleted + 2),\n            \"']/bookName/text())\"\n        );\n        \n        bytes32 id = oraclize_query(\"IPFS\", query, updateBookNameGasLimit);\n        ++queryCount;\n        queryToType[id] = QueryType.GET_BOOK_NAME;\n        \n        OraclizeQuery(\"Query sent; awaiting response...\");\n    }\n    \n    /**\n    * @dev This function constructs the query string necessary for retrieving the number of chapters in a given book in the Bible.\n    * Once the string has been constructed using the `strConcat()` function provided by Oraclize, the\n    * Oraclize query is sent out; afterwhich the `queryToType` variable is stored to keep track of the query.\n    */\n    function myOraclizeUpdateNumberOfChapters()\n        internal\n    {\n        require(this.balance > oraclize_getPrice(\"IPFS\"));\n        \n        string memory query = url;\n        \n        query = strConcat(\n            query,\n            uint2str(booksCompleted + 2),\n            \"']/numberOfChapters/text())\"\n        );\n        \n        bytes32 id = oraclize_query(\"IPFS\", query, updateNumberOfChaptersGasLimit);\n        ++queryCount;\n        queryToType[id] = QueryType.GET_NUMBER_OF_CHAPTERS;\n        \n        OraclizeQuery(\"Query sent; awaiting response...\");\n    }\n    \n    /**\n    * @dev This function constructs the query string necessary for retrieving the number of verses in a given Bible chapter.\n    * Once the string has been constructed using the `strConcat()` function provided by Oraclize, the\n    * Oraclize query is sent out; afterwhich the `queryToType` variable is stored to keep track of the query.\n    * @notice There are two versions of this function; the first one constructs the query for a book that has not\n    * been completed while the second one constructs the query for a book that has been completed.\n    * This is needed because there would be complications the query after a book has been finished, because the `booksCompleted`\n    * variable would not have been updated yet.\n    */\n    function myOraclizeUpdateChapterVersesI()\n        internal\n    {\n        require(this.balance > oraclize_getPrice(\"IPFS\"));\n        \n        string memory query = url;\n        \n        query = strConcat(\n            query,\n            uint2str(booksCompleted + 1),\n            \"']/Chapter[@id='\",\n            uint2str(currentChapterNumber),\n            \"']/numberOfVerses/text())\"\n        );\n        \n        bytes32 id = oraclize_query(\"IPFS\", query, updateChapterVersesIGasLimit);\n        ++queryCount;\n        queryToType[id] = QueryType.GET_CHAPTER_VERSES;\n        \n        OraclizeQuery(\"Query sent; awaiting response...\");\n    }\n    \n    /**\n    * @dev This function constructs the query string necessary for retrieving the number of verses in a given Bible chapter.\n    * Once the string has been constructed using the `strConcat()` function provided by Oraclize, the\n    * Oraclize query is sent out; afterwhich the `queryToType` variable is stored to keep track of the query.\n    * @notice There are two versions of this function; the first one constructs the query for a book that has not\n    * been completed while the second one constructs the query for a book that has been completed.\n    * This is needed because there would be complications the query after a book has been finished, because the `booksCompleted`\n    * variable would not have been updated yet.\n    */\n    function myOraclizeUpdateChapterVersesII()\n        internal\n    {\n        require(this.balance > oraclize_getPrice(\"IPFS\"));\n        \n        string memory query = url;\n        \n        query = strConcat(\n            query,\n            uint2str(booksCompleted + 2),\n            \"']/Chapter[@id='\",\n            uint2str(currentChapterNumber),\n            \"']/numberOfVerses/text())\"\n        );\n        \n        bytes32 id = oraclize_query(\"IPFS\", query, updateChapterVersesIIGasLimit);\n        ++queryCount;\n        queryToType[id] = QueryType.GET_CHAPTER_VERSES;\n        \n        OraclizeQuery(\"Query sent; awaiting response...\");\n    }\n    \n}\n",
  "sourcePath": "/home/i/BibleToken/contracts/BibleTokenMinting.sol",
  "compiler": {
    "name": "solc",
    "version": "0.4.24+commit.e67f0147.Emscripten.clang"
  },
  "schemaVersion": "2.0.0",
  "updatedAt": "2018-07-07T04:00:26.299Z"
}