{
  "contractName": "BibleTokenOwnership",
  "abi": [
    {
      "constant": true,
      "inputs": [
        {
          "name": "_interfaceId",
          "type": "bytes4"
        }
      ],
      "name": "supportsInterface",
      "outputs": [
        {
          "name": "",
          "type": "bool"
        }
      ],
      "payable": false,
      "stateMutability": "view",
      "type": "function"
    },
    {
      "constant": false,
      "inputs": [],
      "name": "unpause",
      "outputs": [],
      "payable": false,
      "stateMutability": "nonpayable",
      "type": "function"
    },
    {
      "constant": true,
      "inputs": [],
      "name": "paused",
      "outputs": [
        {
          "name": "",
          "type": "bool"
        }
      ],
      "payable": false,
      "stateMutability": "view",
      "type": "function"
    },
    {
      "constant": false,
      "inputs": [],
      "name": "pause",
      "outputs": [],
      "payable": false,
      "stateMutability": "nonpayable",
      "type": "function"
    },
    {
      "constant": true,
      "inputs": [],
      "name": "owner",
      "outputs": [
        {
          "name": "",
          "type": "address"
        }
      ],
      "payable": false,
      "stateMutability": "view",
      "type": "function"
    },
    {
      "constant": false,
      "inputs": [
        {
          "name": "_newOwner",
          "type": "address"
        }
      ],
      "name": "transferOwnership",
      "outputs": [],
      "payable": false,
      "stateMutability": "nonpayable",
      "type": "function"
    },
    {
      "inputs": [],
      "payable": false,
      "stateMutability": "nonpayable",
      "type": "constructor"
    },
    {
      "anonymous": false,
      "inputs": [
        {
          "indexed": true,
          "name": "_from",
          "type": "address"
        },
        {
          "indexed": true,
          "name": "_to",
          "type": "address"
        },
        {
          "indexed": false,
          "name": "_tokenIndex",
          "type": "uint256"
        }
      ],
      "name": "Transfer",
      "type": "event"
    },
    {
      "anonymous": false,
      "inputs": [
        {
          "indexed": true,
          "name": "_owner",
          "type": "address"
        },
        {
          "indexed": true,
          "name": "_approved",
          "type": "address"
        },
        {
          "indexed": false,
          "name": "_tokenIndex",
          "type": "uint256"
        }
      ],
      "name": "Approval",
      "type": "event"
    },
    {
      "anonymous": false,
      "inputs": [
        {
          "indexed": true,
          "name": "_owner",
          "type": "address"
        },
        {
          "indexed": true,
          "name": "_operator",
          "type": "address"
        },
        {
          "indexed": false,
          "name": "_approved",
          "type": "bool"
        }
      ],
      "name": "ApprovalForAll",
      "type": "event"
    },
    {
      "anonymous": false,
      "inputs": [],
      "name": "Pause",
      "type": "event"
    },
    {
      "anonymous": false,
      "inputs": [],
      "name": "Unpause",
      "type": "event"
    },
    {
      "anonymous": false,
      "inputs": [
        {
          "indexed": true,
          "name": "previousOwner",
          "type": "address"
        },
        {
          "indexed": true,
          "name": "newOwner",
          "type": "address"
        }
      ],
      "name": "OwnershipTransferred",
      "type": "event"
    },
    {
      "constant": true,
      "inputs": [
        {
          "name": "_owner",
          "type": "address"
        }
      ],
      "name": "balanceOf",
      "outputs": [
        {
          "name": "",
          "type": "uint256"
        }
      ],
      "payable": false,
      "stateMutability": "view",
      "type": "function"
    },
    {
      "constant": true,
      "inputs": [
        {
          "name": "_tokenIndex",
          "type": "uint256"
        }
      ],
      "name": "ownerOf",
      "outputs": [
        {
          "name": "_owner",
          "type": "address"
        }
      ],
      "payable": false,
      "stateMutability": "view",
      "type": "function"
    },
    {
      "constant": false,
      "inputs": [
        {
          "name": "_from",
          "type": "address"
        },
        {
          "name": "_to",
          "type": "address"
        },
        {
          "name": "_tokenIndex",
          "type": "uint256"
        }
      ],
      "name": "safeTransferFrom",
      "outputs": [],
      "payable": false,
      "stateMutability": "nonpayable",
      "type": "function"
    },
    {
      "constant": false,
      "inputs": [
        {
          "name": "_from",
          "type": "address"
        },
        {
          "name": "_to",
          "type": "address"
        },
        {
          "name": "_tokenIndex",
          "type": "uint256"
        },
        {
          "name": "_data",
          "type": "bytes"
        }
      ],
      "name": "safeTransferFrom",
      "outputs": [],
      "payable": false,
      "stateMutability": "nonpayable",
      "type": "function"
    },
    {
      "constant": false,
      "inputs": [
        {
          "name": "_from",
          "type": "address"
        },
        {
          "name": "_to",
          "type": "address"
        },
        {
          "name": "_tokenIndex",
          "type": "uint256"
        }
      ],
      "name": "transferFrom",
      "outputs": [],
      "payable": false,
      "stateMutability": "nonpayable",
      "type": "function"
    },
    {
      "constant": false,
      "inputs": [
        {
          "name": "_approved",
          "type": "address"
        },
        {
          "name": "_tokenIndex",
          "type": "uint256"
        }
      ],
      "name": "approve",
      "outputs": [],
      "payable": false,
      "stateMutability": "nonpayable",
      "type": "function"
    },
    {
      "constant": false,
      "inputs": [
        {
          "name": "_operator",
          "type": "address"
        },
        {
          "name": "_approved",
          "type": "bool"
        }
      ],
      "name": "setApprovalForAll",
      "outputs": [],
      "payable": false,
      "stateMutability": "nonpayable",
      "type": "function"
    },
    {
      "constant": true,
      "inputs": [
        {
          "name": "_tokenIndex",
          "type": "uint256"
        }
      ],
      "name": "getApproved",
      "outputs": [
        {
          "name": "",
          "type": "address"
        }
      ],
      "payable": false,
      "stateMutability": "view",
      "type": "function"
    },
    {
      "constant": true,
      "inputs": [
        {
          "name": "_owner",
          "type": "address"
        },
        {
          "name": "_operator",
          "type": "address"
        }
      ],
      "name": "isApprovedForAll",
      "outputs": [
        {
          "name": "",
          "type": "bool"
        }
      ],
      "payable": false,
      "stateMutability": "view",
      "type": "function"
    }
  ],
  "bytecode": "0x60806040526000805460a060020a60ff021916905534801561002057600080fd5b5060008054600160a060020a031916331781557f01ffc9a7000000000000000000000000000000000000000000000000000000008152600160208181527fb45820386466a8e01597d6e1efaf8f11ba4467972de5ca6c1f8aa3544ac2888e805460ff199081168417909155604080517f6973417070726f766564466f72416c6c28616464726573732c6164647265737381527f29000000000000000000000000000000000000000000000000000000000000008185015281519081900360210181207f676574417070726f7665642875696e7432353629000000000000000000000000825282519182900360140182207f736574417070726f76616c466f72416c6c28616464726573732c626f6f6c29008352835192839003601f0183207f617070726f766528616464726573732c75696e74323536290000000000000000845284519384900360180184207f7472616e7366657246726f6d28616464726573732c616464726573732c75696e85527f74323536290000000000000000000000000000000000000000000000000000008589015285519485900360250185207f736166655472616e7366657246726f6d28616464726573732c616464726573738087527f2c75696e74323536290000000000000000000000000000000000000000000000878b015287519687900360290187209087527f2c75696e743235362c6279746573290000000000000000000000000000000000878b0152875196879003602f0187207f6f776e65724f662875696e743235362900000000000000000000000000000000885288519788900360100188207f62616c616e63654f6628616464726573732900000000000000000000000000008952895198899003601201909820909718909618909518909418909318909218909118187fffffffff000000000000000000000000000000000000000000000000000000001685529183905292208054909216179055610e8f806102fa6000396000f3006080604052600436106100da5763ffffffff7c010000000000000000000000000000000000000000000000000000000060003504166301ffc9a781146100df578063081812fc1461012a578063095ea7b31461015e57806323b872dd146101845780633f4ba83a146101ae57806342842e0e146101c35780635c975abb146101ed5780636352211e1461020257806370a082311461021a5780638456cb591461024d5780638da5cb5b14610262578063a22cb46514610277578063b88d4fde1461029d578063e985e9c5146102d6578063f2fde38b146102fd575b600080fd5b3480156100eb57600080fd5b506101167bffffffffffffffffffffffffffffffffffffffffffffffffffffffff196004351661031e565b604080519115158252519081900360200190f35b34801561013657600080fd5b50610142600435610356565b60408051600160a060020a039092168252519081900360200190f35b34801561016a57600080fd5b50610182600160a060020a0360043516602435610398565b005b34801561019057600080fd5b50610182600160a060020a03600435811690602435166044356104ec565b3480156101ba57600080fd5b506101826105d9565b3480156101cf57600080fd5b50610182600160a060020a0360043581169060243516604435610660565b3480156101f957600080fd5b50610116610681565b34801561020e57600080fd5b506101426004356106a2565b34801561022657600080fd5b5061023b600160a060020a03600435166106c6565b60408051918252519081900360200190f35b34801561025957600080fd5b506101826106f9565b34801561026e57600080fd5b50610142610796565b34801561028357600080fd5b50610182600160a060020a036004351660243515156107a5565b3480156102a957600080fd5b50610182600160a060020a0360048035821691602480359091169160443591606435908101910135610828565b3480156102e257600080fd5b50610116600160a060020a036004358116906024351661086b565b34801561030957600080fd5b50610182600160a060020a03600435166108c6565b7bffffffffffffffffffffffffffffffffffffffffffffffffffffffff19811660009081526001602052604090205460ff165b919050565b6000818152600260205260408120548290600160a060020a0316151561037b57600080fd5b5050600090815260036020526040902054600160a060020a031690565b6000818152600260205260408120548290600160a060020a0316338114806103e35750600160a060020a038116600090815260056020908152604080832033845290915290205460ff165b15156103ee57600080fd5b6000848152600260205260409020548490600160a060020a0316151561041357600080fd5b600085815260026020526040902054600160a060020a039081169450861684141561043d57600080fd5b600085815260036020526040902054600160a060020a03161580156104695750600160a060020a038616155b1561047357600080fd5b600085815260036020908152604091829020805473ffffffffffffffffffffffffffffffffffffffff1916600160a060020a038a8116918217909255835189815293519093918816927f8c5be1e5ebec7d5bd14f71427d1e84f3dd0314c0f7b2291e5b200ac8c7c3b925928290030190a3505050505050565b6000818152600260205260408120548290600160a060020a03163381148061052a5750600082815260036020526040902054600160a060020a031633145b806105585750600160a060020a038116600090815260056020908152604080832033845290915290205460ff165b151561056357600080fd5b6000848152600260205260409020548490600160a060020a0316151561058857600080fd5b600085815260026020526040902054600160a060020a039081169450871684146105b157600080fd5b600160a060020a03861615156105c657600080fd5b6105d0868661095a565b50505050505050565b600054600160a060020a031633146105f057600080fd5b60005474010000000000000000000000000000000000000000900460ff16151561061957600080fd5b6000805474ff0000000000000000000000000000000000000000191681556040517f7805862f689e2f13df9f062ff482ad3ad112aca9e0847911ed832e158c525b339190a1565b61067c83838360206040519081016040528060008152506109e0565b505050565b60005474010000000000000000000000000000000000000000900460ff1681565b600081815260026020526040902054600160a060020a031680151561035157600080fd5b6000600160a060020a03821615156106dd57600080fd5b50600160a060020a031660009081526004602052604090205490565b600054600160a060020a0316331461071057600080fd5b60005474010000000000000000000000000000000000000000900460ff161561073857600080fd5b6000805474ff00000000000000000000000000000000000000001916740100000000000000000000000000000000000000001781556040517f6985a02210a168e66602d3235cb6db0e70f92b3ba4d376a33c0f3d9434bff6259190a1565b600054600160a060020a031681565b600160a060020a03821615156107ba57600080fd5b336000818152600560209081526040808320600160a060020a03871680855290835292819020805460ff1916861515908117909155815190815290519293927f17307eab39ab6107e8899845ad3d59bd9653f200f220920489ca2b5937696c31929181900390910190a35050565b61086485858585858080601f016020809104026020016040519081016040528093929190818152602001838380828437506109e0945050505050565b5050505050565b6000600160a060020a038316151561088257600080fd5b600160a060020a038216151561089757600080fd5b50600160a060020a03918216600090815260056020908152604080832093909416825291909152205460ff1690565b600054600160a060020a031633146108dd57600080fd5b600160a060020a03811615156108f257600080fd5b60008054604051600160a060020a03808516939216917f8be0079c531659141344cd1fd0a4f28419497f9722a3daafe3b4186f6b6457e091a36000805473ffffffffffffffffffffffffffffffffffffffff1916600160a060020a0392909216919091179055565b600081815260026020526040902054600160a060020a031661097c8183610c82565b6109868183610cec565b6109908383610da2565b82600160a060020a031681600160a060020a03167fddf252ad1be2c89b69c2b068fc378daa952ba7f163c4a11628f55a4df523b3ef846040518082815260200191505060405180910390a3505050565b60008281526002602052604081205481908490600160a060020a031633811480610a205750600082815260036020526040902054600160a060020a031633145b80610a4e5750600160a060020a038116600090815260056020908152604080832033845290915290205460ff165b1515610a5957600080fd5b6000868152600260205260409020548690600160a060020a03161515610a7e57600080fd5b600087815260026020526040902054600160a060020a03908116955089168514610aa757600080fd5b600160a060020a0388161515610abc57600080fd5b610ac6888861095a565b610ad888600160a060020a0316610e33565b15610c775787600160a060020a031663f0b9e5ba8a89896040518463ffffffff167c01000000000000000000000000000000000000000000000000000000000281526004018084600160a060020a0316600160a060020a0316815260200183815260200180602001828103825283818151815260200191508051906020019080838360005b83811015610b75578181015183820152602001610b5d565b50505050905090810190601f168015610ba25780820380516001836020036101000a031916815260200191505b50945050505050602060405180830381600087803b158015610bc357600080fd5b505af1158015610bd7573d6000803e3d6000fd5b505050506040513d6020811015610bed57600080fd5b5051604080517f6f6e455243373231526563656976656428616464726573732c75696e7432353681527f2c62797465732900000000000000000000000000000000000000000000000000602082015290519081900360270190209094507bffffffffffffffffffffffffffffffffffffffffffffffffffffffff19808616911614610c7757600080fd5b505050505050505050565b6000818152600360209081526040808320805473ffffffffffffffffffffffffffffffffffffffff1916905580518481529051600160a060020a038616927f8c5be1e5ebec7d5bd14f71427d1e84f3dd0314c0f7b2291e5b200ac8c7c3b925928290030190a35050565b600081815260026020526040902054600160a060020a03838116911614610d1257600080fd5b600160a060020a03821660009081526004602052604081205411610d3257fe5b600160a060020a038216600090815260046020526040902054610d5c90600163ffffffff610e3b16565b600160a060020a03909216600090815260046020908152604080832094909455918152600290915220805473ffffffffffffffffffffffffffffffffffffffff19169055565b600081815260026020526040902054600160a060020a031615610dc457600080fd5b6000818152600260209081526040808320805473ffffffffffffffffffffffffffffffffffffffff1916600160a060020a03871690811790915583526004909152902054610e13906001610e4d565b600160a060020a0390921660009081526004602052604090209190915550565b6000903b1190565b600082821115610e4757fe5b50900390565b600082820183811015610e5c57fe5b93925050505600a165627a7a72305820c6a00b4244a4eca28f63f60aa8623440676a2d26ee68d4772d972227a7ff8af10029",
  "source": "/**\n * @file BibleTokenOwnership.sol\n * @author John DeBord <i@johndebord.tk>\n * @date 2018\n * \n * Utilizing 0xcert's ERC721 token implementation\n * https://0xcert.org/\n */\n\npragma solidity ^0.4.20;\n\nimport \"./math/SafeMath.sol\";\nimport \"./utils/AddressUtils.sol\";\n\nimport \"./ownership/Pausable.sol\";\nimport \"./ERC721.sol\";\nimport \"./SupportsInterface.sol\";\nimport \"./ERC721TokenReceiver.sol\";\n\n/**\n * @title BibleTokenOwnership\n * @dev Implementation of ERC-721 non-fungible token standard.\n */\ncontract BibleTokenOwnership is\n    Pausable,\n    ERC721,\n    SupportsInterface\n{\n    \n    using SafeMath for uint256;\n    using AddressUtils for address;\n\n    /**\n    * @dev A mapping from BibleToken index to the address that owns it.\n    */\n    mapping (uint256 => address) internal indexToOwner;\n\n    /**\n    * @dev Mapping from BibleToken index to approved address.\n    */\n    mapping (uint256 => address) internal indexToApprovals;\n\n    /**\n    * @dev Mapping from owner address to count of his/her BibleTokens.\n    */\n    mapping (address => uint256) internal ownerToBibleTokenCount;\n\n    /**\n    * @dev Mapping from owner address to mapping of operator addresses.\n    */\n    mapping (address => mapping (address => bool)) internal ownerToOperators;\n\n    /**\n    * @dev Magic value of a smart contract that can recieve a BibleToken.\n    */\n    bytes4 constant MAGIC_ON_ERC721_RECEIVED = bytes4(keccak256(\"onERC721Received(address,uint256,bytes)\")); // 0xf0b9e5ba;\n\n    /**\n    * @dev Emits when ownership of any BibleToken changes by any mechanism. This event emits when BibleTokens are\n    * created (`from` == 0) and destroyed (`to` == 0).\n    * @param _from Sender of a BibleToken (if address is zero address it indicates token creation).\n    * @param _to Receiver of a BibleToken (if address is zero address it indicates token destruction).\n    * @param _tokenIndex The index of the BibleToken that got transfered.\n    */\n    event Transfer(\n        address indexed _from,\n        address indexed _to,\n        uint256 _tokenIndex\n    );\n\n    /**\n    * @dev This emits when the approved address for a BibleToken is changed or reaffirmed. The zero\n    * address indicates there is no approved address. When a Transfer event emits, this also\n    * indicates that the approved address for that BibleToken (if any) is reset to none.\n    * @param _owner Owner of a BibleToken.\n    * @param _approved Address that we are approving.\n    * @param _tokenIndex BibleToken index which we are approving.\n    */\n    event Approval(\n        address indexed _owner,\n        address indexed _approved,\n        uint256 _tokenIndex\n    );\n\n    /**\n    * @dev This emits when an operator is enabled or disabled for an owner. The operator can manage\n    * all BibleTokens of the owner.\n    * @param _owner Owner of a BibleToken.\n    * @param _operator Address to which we are setting operator rights.\n    * @param _approved Status of operator rights(true if operator rights are given and false if\n    * revoked).\n    */\n    event ApprovalForAll(\n        address indexed _owner,\n        address indexed _operator,\n        bool _approved\n    );\n\n    /**\n    * @dev Guarantees that the msg.sender is an owner or operator of the given BibleToken.\n    * @param _tokenIndex Index of the BibleToken to validate.\n    */\n    modifier canOperate(\n        uint256 _tokenIndex\n    ) {\n        address tokenOwner = indexToOwner[_tokenIndex];\n        require(tokenOwner == msg.sender || ownerToOperators[tokenOwner][msg.sender]);\n        _;\n    }\n\n    /**\n    * @dev Guarantees that the msg.sender is allowed to transfer a BibleToken.\n    * @param _tokenIndex Index of the BibleToken to transfer.\n    */\n    modifier canTransfer(\n        uint256 _tokenIndex\n    ) {\n        address tokenOwner = indexToOwner[_tokenIndex];\n        require(\n            tokenOwner == msg.sender\n            || indexToApprovals[_tokenIndex] == msg.sender\n            || ownerToOperators[tokenOwner][msg.sender]\n            );\n        _;\n    }\n\n    /**\n    * @dev Guarantees that _tokenIndex is a valid Token.\n    * @param _tokenIndex Index of the BibleToken to validate.\n    */\n    modifier validNFToken(\n        uint256 _tokenIndex\n    ) {\n        require(indexToOwner[_tokenIndex] != address(0));\n        _;\n    }\n\n    /**\n    * @dev Contract constructor.\n    */\n    function BibleTokenOwnership()\n        public\n    {\n        supportedInterfaces[bytes4(\n            (keccak256(\"balanceOf(address)\")) ^\n            (keccak256(\"ownerOf(uint256)\")) ^\n            (keccak256(\"safeTransferFrom(address,address,uint256,bytes)\")) ^\n            (keccak256(\"safeTransferFrom(address,address,uint256)\")) ^\n            (keccak256(\"transferFrom(address,address,uint256)\")) ^\n            (keccak256(\"approve(address,uint256)\")) ^\n            (keccak256(\"setApprovalForAll(address,bool)\")) ^\n            (keccak256(\"getApproved(uint256)\")) ^\n            (keccak256(\"isApprovedForAll(address,address)\")))] = true; // ERC721; 0x80ac58cd\n    }\n\n    /**\n    * @dev Returns the number of BibleTokens owned by `_owner`. BibleTokens assigned to the zero address are\n    * considered invalid, and this function throws for queries about the zero address.\n    * @param _owner Address for whom to query the balance.\n    */\n    function balanceOf(\n        address _owner\n    )\n        external\n        view\n        returns (uint256)\n    {\n        require(_owner != address(0));\n        return ownerToBibleTokenCount[_owner];\n    }\n\n    /**\n    * @dev Returns the address of the owner of the BibleToken. BibleTokens assigned to zero address are considered\n    * invalid, and queries about them do throw.\n    * @param _tokenIndex Index of the BibleToken.\n    */\n    function ownerOf(\n        uint256 _tokenIndex\n    )\n        external\n        view\n        returns (address _owner)\n    {\n        _owner = indexToOwner[_tokenIndex];\n        require(_owner != address(0));\n    }\n\n    /**\n    * @dev Transfers the ownership of a BibleToken from one address to another address.\n    * @notice Throws unless `msg.sender` is the current owner, an authorized operator, or the\n    * approved address for this BibleToken. Throws if `_from` is not the current owner. Throws if `_to` is\n    * the zero address. Throws if `_tokenIndex` is not a valid BibleToken. When transfer is complete, this\n    * function checks if `_to` is a smart contract (code size > 0). If so, it calls `onERC721Received`\n    * on `_to` and throws if the return value is not `bytes4(keccak256(\"onERC721Received(address,uint256,bytes)\"))`.\n    * @param _from The current owner of the BibleToken.\n    * @param _to The new owner.\n    * @param _tokenIndex Index of the BibleToken to transfer.\n    * @param _data Additional data with no specified format, sent in call to `_to`.\n    */\n    function safeTransferFrom(\n        address _from,\n        address _to,\n        uint256 _tokenIndex,\n        bytes _data\n    )\n        external\n    {\n        _safeTransferFrom(_from, _to, _tokenIndex, _data);\n    }\n\n    /**\n    * @dev Transfers the ownership of a BibleToken from one address to another address.\n    * @notice This works identically to the other function with an extra data parameter, except this\n    * function just sets data to \"\"\n    * @param _from The current owner of the BibleToken.\n    * @param _to The new owner.\n    * @param _tokenIndex Index of the BibleToken to transfer.\n    */\n    function safeTransferFrom(\n        address _from,\n        address _to,\n        uint256 _tokenIndex\n    )\n        external\n    {\n        _safeTransferFrom(_from, _to, _tokenIndex, \"\");\n    }\n\n    /**\n    * @dev Throws unless `msg.sender` is the current owner, an authorized operator, or the approved\n    * address for this BibleToken. Throws if `_from` is not the current owner. Throws if `_to` is the zero\n    * address. Throws if `_tokenIndex` is not a valid BibleToken.\n    * @notice The caller is responsible to confirm that `_to` is capable of receiving BibleTokens or else\n    * they maybe be permanently lost.\n    * @notice This function is public because it must be called within the `BibleTokenMinting` contract;\n    * so this function is not limited to it just being called externally.\n    * @param _from The current owner of the BibleToken.\n    * @param _to The new owner.\n    * @param _tokenIndex Index of the BibleToken to transfer.\n    */\n    function transferFrom(\n        address _from,\n        address _to,\n        uint256 _tokenIndex\n    )\n        public\n        canTransfer(_tokenIndex)\n        validNFToken(_tokenIndex)\n    {\n        address tokenOwner = indexToOwner[_tokenIndex];\n        require(tokenOwner == _from);\n        require(_to != address(0));\n\n        _transfer(_to, _tokenIndex);\n    }\n\n    /**\n    * @dev Set or reaffirm the approved address for a BibleToken.\n    * @notice The zero address indicates there is no approved address. Throws unless `msg.sender` is\n    * the current BibleToken owner, or an authorized operator of the current owner.\n    * @param _approved Address to be approved for the given BibleToken index.\n    * @param _tokenIndex Index of the BibleToken to be approved.\n    */\n    function approve(\n        address _approved,\n        uint256 _tokenIndex\n    )\n        external\n        canOperate(_tokenIndex)\n        validNFToken(_tokenIndex)\n    {\n        address tokenOwner = indexToOwner[_tokenIndex];\n        require(_approved != tokenOwner);\n        require(!(indexToApprovals[_tokenIndex] == address(0) && _approved == address(0)));\n\n        indexToApprovals[_tokenIndex] = _approved;\n        Approval(tokenOwner, _approved, _tokenIndex);\n    }\n\n    /**\n    * @dev Enables or disables approval for a third party (\"operator\") to manage all of\n    * `msg.sender`'s assets. It also emits the ApprovalForAll event.\n    * @notice This works even if sender doesn't own any tokens at the time.\n    * @param _operator Address to add to the set of authorized operators.\n    * @param _approved True if the operators is approved, false to revoke approval.\n    */\n    function setApprovalForAll(\n        address _operator,\n        bool _approved\n    )\n        external\n    {\n        require(_operator != address(0));\n        ownerToOperators[msg.sender][_operator] = _approved;\n        ApprovalForAll(msg.sender, _operator, _approved);\n    }\n\n    /**\n    * @dev Get the approved address for a single BibleToken.\n    * @notice Throws if `_tokenIndex` is not a valid BibleToken.\n    * @param _tokenIndex Index of the BibleToken to query the approval of.\n    */\n    function getApproved(\n        uint256 _tokenIndex\n    )\n        external\n        view\n        validNFToken(_tokenIndex)\n        returns (address)\n    {\n        return indexToApprovals[_tokenIndex];\n    }\n\n    /**\n    * @dev Checks if `_operator` is an approved operator for `_owner`.\n    * @param _owner The address that owns the BibleTokens.\n    * @param _operator The address that acts on behalf of the owner.\n    */\n    function isApprovedForAll(\n        address _owner,\n        address _operator\n    )\n        external\n        view\n        returns (bool)\n    {\n        require(_owner != address(0));\n        require(_operator != address(0));\n        return ownerToOperators[_owner][_operator];\n    }\n\n    /**\n    * @dev Actually perform the safeTransferFrom.\n    * @param _from The current owner of the BibleToken.\n    * @param _to The new owner.\n    * @param _tokenIndex Index of the BibleToken to transfer.\n    * @param _data Additional data with no specified format, sent in call to `_to`.\n    */\n    function _safeTransferFrom(\n        address _from,\n        address _to,\n        uint256 _tokenIndex,\n        bytes _data\n    )\n        internal\n        canTransfer(_tokenIndex)\n        validNFToken(_tokenIndex)\n    {\n        address tokenOwner = indexToOwner[_tokenIndex];\n        require(tokenOwner == _from);\n        require(_to != address(0));\n\n        _transfer(_to, _tokenIndex);\n\n        if (_to.isContract()) {\n            bytes4 retval = ERC721TokenReceiver(_to).onERC721Received(_from, _tokenIndex, _data);\n            require(retval == MAGIC_ON_ERC721_RECEIVED);\n        }\n    }\n\n    /**\n    * @dev Actually preforms the transfer.\n    * @notice Does NO checks.\n    * @param _to Address of a new owner.\n    * @param _tokenIndex Index of the BibleToken that is being transferred.\n    */\n    function _transfer(\n        address _to,\n        uint256 _tokenIndex\n    )\n        private\n    {\n        address from = indexToOwner[_tokenIndex];\n\n        clearApproval(from, _tokenIndex);\n        removeNFToken(from, _tokenIndex);\n        addNFToken(_to, _tokenIndex);\n\n        Transfer(from, _to, _tokenIndex);\n    }\n\n    /**\n    * @dev Clears the current approval of a given BibleToken index.\n    * @param _tokenIndex Index of the BibleToken to be transferred.\n    */\n    function clearApproval(\n        address _owner,\n        uint256 _tokenIndex\n    )\n        internal\n    {\n        delete indexToApprovals[_tokenIndex];\n        Approval(_owner, 0, _tokenIndex);\n    }\n\n    /**\n    * @dev Removes a BibleToken from owner.\n    * @notice Use and override this function with caution. Wrong usage can have serious consequences.\n    * @param _from Address from wich we want to remove the BibleToken.\n    * @param _tokenIndex Index of the BibleToken we want to remove.\n    */\n    function removeNFToken(\n        address _from,\n        uint256 _tokenIndex\n    )\n\tinternal\n    {\n        require(indexToOwner[_tokenIndex] == _from);\n        assert(ownerToBibleTokenCount[_from] > 0);\n        ownerToBibleTokenCount[_from] = ownerToBibleTokenCount[_from].sub(1);\n        delete indexToOwner[_tokenIndex];\n    }\n\n    /**\n    * @dev Assignes a new BibleToken to owner.\n    * @notice Use and override this function with caution. Wrong usage can have serious consequences.\n    * @param _to Address to wich we want to add the BibleToken.\n    * @param _tokenIndex Index of the BibleToken we want to add.\n    */\n    function addNFToken(\n        address _to,\n        uint256 _tokenIndex\n    )\n        internal\n    {\n        require(indexToOwner[_tokenIndex] == address(0));\n\n        indexToOwner[_tokenIndex] = _to;\n        ownerToBibleTokenCount[_to] = ownerToBibleTokenCount[_to].add(1);\n    }\n    \n}\n",
  "sourcePath": "/home/i/BibleToken/contracts/BibleTokenOwnership.sol",
  "compiler": {
    "name": "solc",
    "version": "0.4.24+commit.e67f0147.Emscripten.clang"
  },
  "schemaVersion": "2.0.0",
  "updatedAt": "2018-07-07T04:00:26.290Z"
}