{
  "contractName": "BibleTokenEnumerable",
  "abi": [
    {
      "constant": true,
      "inputs": [
        {
          "name": "_interfaceId",
          "type": "bytes4"
        }
      ],
      "name": "supportsInterface",
      "outputs": [
        {
          "name": "",
          "type": "bool"
        }
      ],
      "payable": false,
      "stateMutability": "view",
      "type": "function"
    },
    {
      "constant": true,
      "inputs": [
        {
          "name": "_tokenIndex",
          "type": "uint256"
        }
      ],
      "name": "getApproved",
      "outputs": [
        {
          "name": "",
          "type": "address"
        }
      ],
      "payable": false,
      "stateMutability": "view",
      "type": "function"
    },
    {
      "constant": false,
      "inputs": [
        {
          "name": "_approved",
          "type": "address"
        },
        {
          "name": "_tokenIndex",
          "type": "uint256"
        }
      ],
      "name": "approve",
      "outputs": [],
      "payable": false,
      "stateMutability": "nonpayable",
      "type": "function"
    },
    {
      "constant": false,
      "inputs": [
        {
          "name": "_from",
          "type": "address"
        },
        {
          "name": "_to",
          "type": "address"
        },
        {
          "name": "_tokenIndex",
          "type": "uint256"
        }
      ],
      "name": "transferFrom",
      "outputs": [],
      "payable": false,
      "stateMutability": "nonpayable",
      "type": "function"
    },
    {
      "constant": true,
      "inputs": [],
      "name": "currentBookName",
      "outputs": [
        {
          "name": "",
          "type": "string"
        }
      ],
      "payable": false,
      "stateMutability": "view",
      "type": "function"
    },
    {
      "constant": false,
      "inputs": [],
      "name": "unpause",
      "outputs": [],
      "payable": false,
      "stateMutability": "nonpayable",
      "type": "function"
    },
    {
      "constant": false,
      "inputs": [
        {
          "name": "_from",
          "type": "address"
        },
        {
          "name": "_to",
          "type": "address"
        },
        {
          "name": "_tokenIndex",
          "type": "uint256"
        }
      ],
      "name": "safeTransferFrom",
      "outputs": [],
      "payable": false,
      "stateMutability": "nonpayable",
      "type": "function"
    },
    {
      "constant": true,
      "inputs": [],
      "name": "paused",
      "outputs": [
        {
          "name": "",
          "type": "bool"
        }
      ],
      "payable": false,
      "stateMutability": "view",
      "type": "function"
    },
    {
      "constant": true,
      "inputs": [
        {
          "name": "_tokenIndex",
          "type": "uint256"
        }
      ],
      "name": "ownerOf",
      "outputs": [
        {
          "name": "_owner",
          "type": "address"
        }
      ],
      "payable": false,
      "stateMutability": "view",
      "type": "function"
    },
    {
      "constant": true,
      "inputs": [
        {
          "name": "_owner",
          "type": "address"
        }
      ],
      "name": "balanceOf",
      "outputs": [
        {
          "name": "",
          "type": "uint256"
        }
      ],
      "payable": false,
      "stateMutability": "view",
      "type": "function"
    },
    {
      "constant": false,
      "inputs": [],
      "name": "pause",
      "outputs": [],
      "payable": false,
      "stateMutability": "nonpayable",
      "type": "function"
    },
    {
      "constant": true,
      "inputs": [],
      "name": "owner",
      "outputs": [
        {
          "name": "",
          "type": "address"
        }
      ],
      "payable": false,
      "stateMutability": "view",
      "type": "function"
    },
    {
      "constant": true,
      "inputs": [],
      "name": "booksCompleted",
      "outputs": [
        {
          "name": "",
          "type": "uint8"
        }
      ],
      "payable": false,
      "stateMutability": "view",
      "type": "function"
    },
    {
      "constant": true,
      "inputs": [],
      "name": "currentVerseNumber",
      "outputs": [
        {
          "name": "",
          "type": "uint8"
        }
      ],
      "payable": false,
      "stateMutability": "view",
      "type": "function"
    },
    {
      "constant": false,
      "inputs": [
        {
          "name": "_operator",
          "type": "address"
        },
        {
          "name": "_approved",
          "type": "bool"
        }
      ],
      "name": "setApprovalForAll",
      "outputs": [],
      "payable": false,
      "stateMutability": "nonpayable",
      "type": "function"
    },
    {
      "constant": true,
      "inputs": [],
      "name": "currentNumberOfChapters",
      "outputs": [
        {
          "name": "",
          "type": "uint8"
        }
      ],
      "payable": false,
      "stateMutability": "view",
      "type": "function"
    },
    {
      "constant": false,
      "inputs": [
        {
          "name": "_from",
          "type": "address"
        },
        {
          "name": "_to",
          "type": "address"
        },
        {
          "name": "_tokenIndex",
          "type": "uint256"
        },
        {
          "name": "_data",
          "type": "bytes"
        }
      ],
      "name": "safeTransferFrom",
      "outputs": [],
      "payable": false,
      "stateMutability": "nonpayable",
      "type": "function"
    },
    {
      "constant": true,
      "inputs": [],
      "name": "currentChapterNumber",
      "outputs": [
        {
          "name": "",
          "type": "uint8"
        }
      ],
      "payable": false,
      "stateMutability": "view",
      "type": "function"
    },
    {
      "constant": true,
      "inputs": [],
      "name": "currentChapterVersesNumber",
      "outputs": [
        {
          "name": "",
          "type": "uint8"
        }
      ],
      "payable": false,
      "stateMutability": "view",
      "type": "function"
    },
    {
      "constant": true,
      "inputs": [
        {
          "name": "_owner",
          "type": "address"
        },
        {
          "name": "_operator",
          "type": "address"
        }
      ],
      "name": "isApprovedForAll",
      "outputs": [
        {
          "name": "",
          "type": "bool"
        }
      ],
      "payable": false,
      "stateMutability": "view",
      "type": "function"
    },
    {
      "constant": false,
      "inputs": [
        {
          "name": "_newOwner",
          "type": "address"
        }
      ],
      "name": "transferOwnership",
      "outputs": [],
      "payable": false,
      "stateMutability": "nonpayable",
      "type": "function"
    },
    {
      "inputs": [],
      "payable": false,
      "stateMutability": "nonpayable",
      "type": "constructor"
    },
    {
      "anonymous": false,
      "inputs": [
        {
          "indexed": true,
          "name": "_from",
          "type": "address"
        },
        {
          "indexed": true,
          "name": "_to",
          "type": "address"
        },
        {
          "indexed": false,
          "name": "_tokenIndex",
          "type": "uint256"
        }
      ],
      "name": "Transfer",
      "type": "event"
    },
    {
      "anonymous": false,
      "inputs": [
        {
          "indexed": true,
          "name": "_owner",
          "type": "address"
        },
        {
          "indexed": true,
          "name": "_approved",
          "type": "address"
        },
        {
          "indexed": false,
          "name": "_tokenIndex",
          "type": "uint256"
        }
      ],
      "name": "Approval",
      "type": "event"
    },
    {
      "anonymous": false,
      "inputs": [
        {
          "indexed": true,
          "name": "_owner",
          "type": "address"
        },
        {
          "indexed": true,
          "name": "_operator",
          "type": "address"
        },
        {
          "indexed": false,
          "name": "_approved",
          "type": "bool"
        }
      ],
      "name": "ApprovalForAll",
      "type": "event"
    },
    {
      "anonymous": false,
      "inputs": [],
      "name": "Pause",
      "type": "event"
    },
    {
      "anonymous": false,
      "inputs": [],
      "name": "Unpause",
      "type": "event"
    },
    {
      "anonymous": false,
      "inputs": [
        {
          "indexed": true,
          "name": "previousOwner",
          "type": "address"
        },
        {
          "indexed": true,
          "name": "newOwner",
          "type": "address"
        }
      ],
      "name": "OwnershipTransferred",
      "type": "event"
    },
    {
      "constant": true,
      "inputs": [],
      "name": "totalSupply",
      "outputs": [
        {
          "name": "",
          "type": "uint256"
        }
      ],
      "payable": false,
      "stateMutability": "view",
      "type": "function"
    }
  ],
  "bytecode": "0x60806040526003805460c060020a60ff021916905534801561002057600080fd5b506003805464010000000033027fffffffffffffffff0000000000000000000000000000000000000000ffffffff9091161790557f01ffc9a7000000000000000000000000000000000000000000000000000000006000908152600460208181527f9fe05126d2d9ecf60592e254dead906a4b2e492f36cca727682c38e9008c6ac1805460ff199081166001908117909255604080517f6973417070726f766564466f72416c6c28616464726573732c6164647265737381527f29000000000000000000000000000000000000000000000000000000000000008186015281519081900360210181207f676574417070726f7665642875696e7432353629000000000000000000000000825282519182900360140182207f736574417070726f76616c466f72416c6c28616464726573732c626f6f6c29008352835192839003601f0183207f617070726f766528616464726573732c75696e74323536290000000000000000845284519384900360180184207f7472616e7366657246726f6d28616464726573732c616464726573732c75696e85527f7432353629000000000000000000000000000000000000000000000000000000858a015285519485900360250185207f736166655472616e7366657246726f6d28616464726573732c616464726573738087527f2c75696e74323536290000000000000000000000000000000000000000000000878c015287519687900360290187209087527f2c75696e743235362c6279746573290000000000000000000000000000000000878c0152875196879003602f0187207f6f776e65724f662875696e743235362900000000000000000000000000000000885288519788900360100188207f62616c616e63654f6628616464726573732900000000000000000000000000008952895198899003601201892018181818181818187fffffffff00000000000000000000000000000000000000000000000000000000908116885286865282882080548516861790557f746f74616c537570706c792829000000000000000000000000000000000000008252825191829003600d01909120168652939092529190922080549092161790556110c7806103566000396000f3006080604052600436106101275763ffffffff7c010000000000000000000000000000000000000000000000000000000060003504166301ffc9a7811461012c578063081812fc14610177578063095ea7b3146101ab57806318160ddd146101d157806323b872dd146101f857806335df3bd6146102225780633f4ba83a146102ac57806342842e0e146102c15780635c975abb146102eb5780636352211e1461030057806370a08231146103185780638456cb59146103395780638da5cb5b1461034e5780639894eab214610363578063991184481461038e578063a22cb465146103a3578063b15b5b81146103c9578063b88d4fde146103de578063d0c5e63a14610417578063d523be041461042c578063e985e9c514610441578063f2fde38b14610468575b600080fd5b34801561013857600080fd5b506101637bffffffffffffffffffffffffffffffffffffffffffffffffffffffff1960043516610489565b604080519115158252519081900360200190f35b34801561018357600080fd5b5061018f6004356104c1565b60408051600160a060020a039092168252519081900360200190f35b3480156101b757600080fd5b506101cf600160a060020a0360043516602435610503565b005b3480156101dd57600080fd5b506101e6610657565b60408051918252519081900360200190f35b34801561020457600080fd5b506101cf600160a060020a036004358116906024351660443561065d565b34801561022e57600080fd5b5061023761074a565b6040805160208082528351818301528351919283929083019185019080838360005b83811015610271578181015183820152602001610259565b50505050905090810190601f16801561029e5780820380516001836020036101000a031916815260200191505b509250505060405180910390f35b3480156102b857600080fd5b506101cf6107d5565b3480156102cd57600080fd5b506101cf600160a060020a0360043581169060243516604435610859565b3480156102f757600080fd5b5061016361087a565b34801561030c57600080fd5b5061018f60043561088a565b34801561032457600080fd5b506101e6600160a060020a03600435166108ae565b34801561034557600080fd5b506101cf6108e1565b34801561035a57600080fd5b5061018f61096a565b34801561036f57600080fd5b50610378610981565b6040805160ff9092168252519081900360200190f35b34801561039a57600080fd5b5061037861098a565b3480156103af57600080fd5b506101cf600160a060020a0360043516602435151561099a565b3480156103d557600080fd5b50610378610a1d565b3480156103ea57600080fd5b506101cf600160a060020a0360048035821691602480359091169160443591606435908101910135610a26565b34801561042357600080fd5b50610378610a69565b34801561043857600080fd5b50610378610a78565b34801561044d57600080fd5b50610163600160a060020a0360043581169060243516610a86565b34801561047457600080fd5b506101cf600160a060020a0360043516610ae1565b7bffffffffffffffffffffffffffffffffffffffffffffffffffffffff19811660009081526004602052604090205460ff165b919050565b6000818152600560205260408120548290600160a060020a031615156104e657600080fd5b5050600090815260066020526040902054600160a060020a031690565b6000818152600560205260408120548290600160a060020a03163381148061054e5750600160a060020a038116600090815260086020908152604080832033845290915290205460ff165b151561055957600080fd5b6000848152600560205260409020548490600160a060020a0316151561057e57600080fd5b600085815260056020526040902054600160a060020a03908116945086168414156105a857600080fd5b600085815260066020526040902054600160a060020a03161580156105d45750600160a060020a038616155b156105de57600080fd5b600085815260066020908152604091829020805473ffffffffffffffffffffffffffffffffffffffff1916600160a060020a038a8116918217909255835189815293519093918816927f8c5be1e5ebec7d5bd14f71427d1e84f3dd0314c0f7b2291e5b200ac8c7c3b925928290030190a3505050505050565b60095490565b6000818152600560205260408120548290600160a060020a03163381148061069b5750600082815260066020526040902054600160a060020a031633145b806106c95750600160a060020a038116600090815260086020908152604080832033845290915290205460ff165b15156106d457600080fd5b6000848152600560205260409020548490600160a060020a031615156106f957600080fd5b600085815260056020526040902054600160a060020a0390811694508716841461072257600080fd5b600160a060020a038616151561073757600080fd5b6107418686610b92565b50505050505050565b6002805460408051602060018416156101000260001901909316849004601f810184900484028201840190925281815292918301828280156107cd5780601f106107a2576101008083540402835291602001916107cd565b820191906000526020600020905b8154815290600101906020018083116107b057829003601f168201915b505050505081565b6003546401000000009004600160a060020a031633146107f457600080fd5b60035460c060020a900460ff16151561080c57600080fd5b6003805478ff000000000000000000000000000000000000000000000000191690556040517f7805862f689e2f13df9f062ff482ad3ad112aca9e0847911ed832e158c525b3390600090a1565b6108758383836020604051908101604052806000815250610c18565b505050565b60035460c060020a900460ff1681565b600081815260056020526040902054600160a060020a03168015156104bc57600080fd5b6000600160a060020a03821615156108c557600080fd5b50600160a060020a031660009081526007602052604090205490565b6003546401000000009004600160a060020a0316331461090057600080fd5b60035460c060020a900460ff161561091757600080fd5b6003805478ff000000000000000000000000000000000000000000000000191660c060020a1790556040517f6985a02210a168e66602d3235cb6db0e70f92b3ba4d376a33c0f3d9434bff62590600090a1565b6003546401000000009004600160a060020a031681565b60015460ff1681565b6003546301000000900460ff1681565b600160a060020a03821615156109af57600080fd5b336000818152600860209081526040808320600160a060020a03871680855290835292819020805460ff1916861515908117909155815190815290519293927f17307eab39ab6107e8899845ad3d59bd9653f200f220920489ca2b5937696c31929181900390910190a35050565b60035460ff1681565b610a6285858585858080601f01602080910402602001604051908101604052809392919081815260200183838082843750610c18945050505050565b5050505050565b60035462010000900460ff1681565b600354610100900460ff1681565b6000600160a060020a0383161515610a9d57600080fd5b600160a060020a0382161515610ab257600080fd5b50600160a060020a03918216600090815260086020908152604080832093909416825291909152205460ff1690565b6003546401000000009004600160a060020a03163314610b0057600080fd5b600160a060020a0381161515610b1557600080fd5b600354604051600160a060020a0380841692640100000000900416907f8be0079c531659141344cd1fd0a4f28419497f9722a3daafe3b4186f6b6457e090600090a360038054600160a060020a039092166401000000000277ffffffffffffffffffffffffffffffffffffffff0000000019909216919091179055565b600081815260056020526040902054600160a060020a0316610bb48183610eba565b610bbe8183610f24565b610bc88383610fda565b82600160a060020a031681600160a060020a03167fddf252ad1be2c89b69c2b068fc378daa952ba7f163c4a11628f55a4df523b3ef846040518082815260200191505060405180910390a3505050565b60008281526005602052604081205481908490600160a060020a031633811480610c585750600082815260066020526040902054600160a060020a031633145b80610c865750600160a060020a038116600090815260086020908152604080832033845290915290205460ff165b1515610c9157600080fd5b6000868152600560205260409020548690600160a060020a03161515610cb657600080fd5b600087815260056020526040902054600160a060020a03908116955089168514610cdf57600080fd5b600160a060020a0388161515610cf457600080fd5b610cfe8888610b92565b610d1088600160a060020a031661106b565b15610eaf5787600160a060020a031663f0b9e5ba8a89896040518463ffffffff167c01000000000000000000000000000000000000000000000000000000000281526004018084600160a060020a0316600160a060020a0316815260200183815260200180602001828103825283818151815260200191508051906020019080838360005b83811015610dad578181015183820152602001610d95565b50505050905090810190601f168015610dda5780820380516001836020036101000a031916815260200191505b50945050505050602060405180830381600087803b158015610dfb57600080fd5b505af1158015610e0f573d6000803e3d6000fd5b505050506040513d6020811015610e2557600080fd5b5051604080517f6f6e455243373231526563656976656428616464726573732c75696e7432353681527f2c62797465732900000000000000000000000000000000000000000000000000602082015290519081900360270190209094507bffffffffffffffffffffffffffffffffffffffffffffffffffffffff19808616911614610eaf57600080fd5b505050505050505050565b6000818152600660209081526040808320805473ffffffffffffffffffffffffffffffffffffffff1916905580518481529051600160a060020a038616927f8c5be1e5ebec7d5bd14f71427d1e84f3dd0314c0f7b2291e5b200ac8c7c3b925928290030190a35050565b600081815260056020526040902054600160a060020a03838116911614610f4a57600080fd5b600160a060020a03821660009081526007602052604081205411610f6a57fe5b600160a060020a038216600090815260076020526040902054610f9490600163ffffffff61107316565b600160a060020a03909216600090815260076020908152604080832094909455918152600590915220805473ffffffffffffffffffffffffffffffffffffffff19169055565b600081815260056020526040902054600160a060020a031615610ffc57600080fd5b6000818152600560209081526040808320805473ffffffffffffffffffffffffffffffffffffffff1916600160a060020a0387169081179091558352600790915290205461104b906001611085565b600160a060020a0390921660009081526007602052604090209190915550565b6000903b1190565b60008282111561107f57fe5b50900390565b60008282018381101561109457fe5b93925050505600a165627a7a72305820cf6417b008041ee85168c9b046001528f81bcd0e7d4fd700f2a06b119bf357c10029",
  "source": "/**\n * @file BibleTokenEnumerable.sol\n * @author John DeBord <i@johndebord.tk>\n * @date 2018\n * \n * Utilizing 0xcert's ERC721 token implementation\n * https://0xcert.org/\n */\n\npragma solidity ^0.4.20;\n\nimport \"./BibleTokenBase.sol\";\nimport \"./BibleTokenOwnership.sol\";\nimport \"./ERC721Enumerable.sol\";\n\n/**\n * @title BibleTokenEnumerable\n * @dev Optional enumeration implementation for ERC-721 non-fungible token standard.\n */\ncontract BibleTokenEnumerable is\n    BibleTokenBase,\n    BibleTokenOwnership,\n    ERC721Enumerable\n{\n\n    /**\n    * @dev Array of all BibleTokens.\n    */\n    Token[] internal tokens;\n\n    /**\n    * @dev Contract constructor.\n    */\n    function BibleTokenEnumerable()\n        public\n    {\n        supportedInterfaces[bytes4(keccak256(\"totalSupply()\"))] = true; // ERC721Enumerable (only method totalSupply(); 0x18160ddd\n    }\n\n    /**\n    * @dev Returns the count of all existing BibleTokens.\n    */\n    function totalSupply()\n        external\n        view\n        returns (uint256)\n    {\n        return tokens.length;\n    }\n\n}\n",
  "sourcePath": "/home/i/BibleToken/contracts/BibleTokenEnumerable.sol",
  "compiler": {
    "name": "solc",
    "version": "0.4.24+commit.e67f0147.Emscripten.clang"
  },
  "schemaVersion": "2.0.0",
  "updatedAt": "2018-07-07T04:00:26.278Z"
}