{
  "contractName": "BibleTokenCore",
  "abi": [
    {
      "constant": true,
      "inputs": [
        {
          "name": "_interfaceId",
          "type": "bytes4"
        }
      ],
      "name": "supportsInterface",
      "outputs": [
        {
          "name": "",
          "type": "bool"
        }
      ],
      "payable": false,
      "stateMutability": "view",
      "type": "function"
    },
    {
      "constant": true,
      "inputs": [],
      "name": "name",
      "outputs": [
        {
          "name": "",
          "type": "string"
        }
      ],
      "payable": false,
      "stateMutability": "view",
      "type": "function"
    },
    {
      "constant": true,
      "inputs": [
        {
          "name": "_tokenIndex",
          "type": "uint256"
        }
      ],
      "name": "getApproved",
      "outputs": [
        {
          "name": "",
          "type": "address"
        }
      ],
      "payable": false,
      "stateMutability": "view",
      "type": "function"
    },
    {
      "constant": false,
      "inputs": [
        {
          "name": "_approved",
          "type": "address"
        },
        {
          "name": "_tokenIndex",
          "type": "uint256"
        }
      ],
      "name": "approve",
      "outputs": [],
      "payable": false,
      "stateMutability": "nonpayable",
      "type": "function"
    },
    {
      "constant": true,
      "inputs": [],
      "name": "updateBookNameGasLimit",
      "outputs": [
        {
          "name": "",
          "type": "uint256"
        }
      ],
      "payable": false,
      "stateMutability": "view",
      "type": "function"
    },
    {
      "constant": false,
      "inputs": [],
      "name": "mint",
      "outputs": [],
      "payable": true,
      "stateMutability": "payable",
      "type": "function"
    },
    {
      "constant": true,
      "inputs": [],
      "name": "totalSupply",
      "outputs": [
        {
          "name": "",
          "type": "uint256"
        }
      ],
      "payable": false,
      "stateMutability": "view",
      "type": "function"
    },
    {
      "constant": true,
      "inputs": [],
      "name": "mintVerseGasLimit",
      "outputs": [
        {
          "name": "",
          "type": "uint256"
        }
      ],
      "payable": false,
      "stateMutability": "view",
      "type": "function"
    },
    {
      "constant": false,
      "inputs": [
        {
          "name": "_from",
          "type": "address"
        },
        {
          "name": "_to",
          "type": "address"
        },
        {
          "name": "_tokenIndex",
          "type": "uint256"
        }
      ],
      "name": "transferFrom",
      "outputs": [],
      "payable": false,
      "stateMutability": "nonpayable",
      "type": "function"
    },
    {
      "constant": false,
      "inputs": [
        {
          "name": "_myid",
          "type": "bytes32"
        },
        {
          "name": "_result",
          "type": "string"
        }
      ],
      "name": "__callback",
      "outputs": [],
      "payable": false,
      "stateMutability": "nonpayable",
      "type": "function"
    },
    {
      "constant": true,
      "inputs": [],
      "name": "currentBookName",
      "outputs": [
        {
          "name": "",
          "type": "string"
        }
      ],
      "payable": false,
      "stateMutability": "view",
      "type": "function"
    },
    {
      "constant": false,
      "inputs": [
        {
          "name": "myid",
          "type": "bytes32"
        },
        {
          "name": "result",
          "type": "string"
        },
        {
          "name": "proof",
          "type": "bytes"
        }
      ],
      "name": "__callback",
      "outputs": [],
      "payable": false,
      "stateMutability": "nonpayable",
      "type": "function"
    },
    {
      "constant": false,
      "inputs": [],
      "name": "unpause",
      "outputs": [],
      "payable": false,
      "stateMutability": "nonpayable",
      "type": "function"
    },
    {
      "constant": false,
      "inputs": [
        {
          "name": "_from",
          "type": "address"
        },
        {
          "name": "_to",
          "type": "address"
        },
        {
          "name": "_tokenIndex",
          "type": "uint256"
        }
      ],
      "name": "safeTransferFrom",
      "outputs": [],
      "payable": false,
      "stateMutability": "nonpayable",
      "type": "function"
    },
    {
      "constant": true,
      "inputs": [],
      "name": "paused",
      "outputs": [
        {
          "name": "",
          "type": "bool"
        }
      ],
      "payable": false,
      "stateMutability": "view",
      "type": "function"
    },
    {
      "constant": true,
      "inputs": [
        {
          "name": "_tokenIndex",
          "type": "uint256"
        }
      ],
      "name": "ownerOf",
      "outputs": [
        {
          "name": "_owner",
          "type": "address"
        }
      ],
      "payable": false,
      "stateMutability": "view",
      "type": "function"
    },
    {
      "constant": true,
      "inputs": [],
      "name": "updateChapterVersesIGasLimit",
      "outputs": [
        {
          "name": "",
          "type": "uint256"
        }
      ],
      "payable": false,
      "stateMutability": "view",
      "type": "function"
    },
    {
      "constant": true,
      "inputs": [
        {
          "name": "_owner",
          "type": "address"
        }
      ],
      "name": "balanceOf",
      "outputs": [
        {
          "name": "",
          "type": "uint256"
        }
      ],
      "payable": false,
      "stateMutability": "view",
      "type": "function"
    },
    {
      "constant": false,
      "inputs": [],
      "name": "pause",
      "outputs": [],
      "payable": false,
      "stateMutability": "nonpayable",
      "type": "function"
    },
    {
      "constant": true,
      "inputs": [],
      "name": "owner",
      "outputs": [
        {
          "name": "",
          "type": "address"
        }
      ],
      "payable": false,
      "stateMutability": "view",
      "type": "function"
    },
    {
      "constant": true,
      "inputs": [],
      "name": "symbol",
      "outputs": [
        {
          "name": "",
          "type": "string"
        }
      ],
      "payable": false,
      "stateMutability": "view",
      "type": "function"
    },
    {
      "constant": true,
      "inputs": [],
      "name": "booksCompleted",
      "outputs": [
        {
          "name": "",
          "type": "uint8"
        }
      ],
      "payable": false,
      "stateMutability": "view",
      "type": "function"
    },
    {
      "constant": true,
      "inputs": [],
      "name": "currentVerseNumber",
      "outputs": [
        {
          "name": "",
          "type": "uint8"
        }
      ],
      "payable": false,
      "stateMutability": "view",
      "type": "function"
    },
    {
      "constant": true,
      "inputs": [],
      "name": "queryCount",
      "outputs": [
        {
          "name": "",
          "type": "uint8"
        }
      ],
      "payable": false,
      "stateMutability": "view",
      "type": "function"
    },
    {
      "constant": true,
      "inputs": [],
      "name": "price",
      "outputs": [
        {
          "name": "",
          "type": "uint256"
        }
      ],
      "payable": false,
      "stateMutability": "view",
      "type": "function"
    },
    {
      "constant": false,
      "inputs": [
        {
          "name": "_operator",
          "type": "address"
        },
        {
          "name": "_approved",
          "type": "bool"
        }
      ],
      "name": "setApprovalForAll",
      "outputs": [],
      "payable": false,
      "stateMutability": "nonpayable",
      "type": "function"
    },
    {
      "constant": true,
      "inputs": [],
      "name": "currentNumberOfChapters",
      "outputs": [
        {
          "name": "",
          "type": "uint8"
        }
      ],
      "payable": false,
      "stateMutability": "view",
      "type": "function"
    },
    {
      "constant": true,
      "inputs": [],
      "name": "contractCanMint",
      "outputs": [
        {
          "name": "",
          "type": "bool"
        }
      ],
      "payable": false,
      "stateMutability": "view",
      "type": "function"
    },
    {
      "constant": true,
      "inputs": [],
      "name": "updateChapterVersesIIGasLimit",
      "outputs": [
        {
          "name": "",
          "type": "uint256"
        }
      ],
      "payable": false,
      "stateMutability": "view",
      "type": "function"
    },
    {
      "constant": false,
      "inputs": [
        {
          "name": "_from",
          "type": "address"
        },
        {
          "name": "_to",
          "type": "address"
        },
        {
          "name": "_tokenIndex",
          "type": "uint256"
        },
        {
          "name": "_data",
          "type": "bytes"
        }
      ],
      "name": "safeTransferFrom",
      "outputs": [],
      "payable": false,
      "stateMutability": "nonpayable",
      "type": "function"
    },
    {
      "constant": true,
      "inputs": [],
      "name": "halted",
      "outputs": [
        {
          "name": "",
          "type": "bool"
        }
      ],
      "payable": false,
      "stateMutability": "view",
      "type": "function"
    },
    {
      "constant": false,
      "inputs": [],
      "name": "ownerUnhalt",
      "outputs": [],
      "payable": false,
      "stateMutability": "nonpayable",
      "type": "function"
    },
    {
      "constant": true,
      "inputs": [],
      "name": "currentChapterNumber",
      "outputs": [
        {
          "name": "",
          "type": "uint8"
        }
      ],
      "payable": false,
      "stateMutability": "view",
      "type": "function"
    },
    {
      "constant": true,
      "inputs": [],
      "name": "currentChapterVersesNumber",
      "outputs": [
        {
          "name": "",
          "type": "uint8"
        }
      ],
      "payable": false,
      "stateMutability": "view",
      "type": "function"
    },
    {
      "constant": true,
      "inputs": [],
      "name": "updateNumberOfChaptersGasLimit",
      "outputs": [
        {
          "name": "",
          "type": "uint256"
        }
      ],
      "payable": false,
      "stateMutability": "view",
      "type": "function"
    },
    {
      "constant": true,
      "inputs": [
        {
          "name": "_owner",
          "type": "address"
        },
        {
          "name": "_operator",
          "type": "address"
        }
      ],
      "name": "isApprovedForAll",
      "outputs": [
        {
          "name": "",
          "type": "bool"
        }
      ],
      "payable": false,
      "stateMutability": "view",
      "type": "function"
    },
    {
      "constant": false,
      "inputs": [
        {
          "name": "_newOwner",
          "type": "address"
        }
      ],
      "name": "transferOwnership",
      "outputs": [],
      "payable": false,
      "stateMutability": "nonpayable",
      "type": "function"
    },
    {
      "inputs": [],
      "payable": false,
      "stateMutability": "nonpayable",
      "type": "constructor"
    },
    {
      "anonymous": false,
      "inputs": [
        {
          "indexed": false,
          "name": "_owner",
          "type": "address"
        },
        {
          "indexed": false,
          "name": "_bookName",
          "type": "string"
        },
        {
          "indexed": false,
          "name": "_chapterNumber",
          "type": "uint8"
        },
        {
          "indexed": false,
          "name": "_verseNumber",
          "type": "uint8"
        },
        {
          "indexed": false,
          "name": "_verseText",
          "type": "string"
        }
      ],
      "name": "VerseMinted",
      "type": "event"
    },
    {
      "anonymous": false,
      "inputs": [
        {
          "indexed": false,
          "name": "_description",
          "type": "string"
        }
      ],
      "name": "OraclizeQuery",
      "type": "event"
    },
    {
      "anonymous": false,
      "inputs": [],
      "name": "Halt",
      "type": "event"
    },
    {
      "anonymous": false,
      "inputs": [],
      "name": "Unhalt",
      "type": "event"
    },
    {
      "anonymous": false,
      "inputs": [
        {
          "indexed": true,
          "name": "_from",
          "type": "address"
        },
        {
          "indexed": true,
          "name": "_to",
          "type": "address"
        },
        {
          "indexed": false,
          "name": "_tokenIndex",
          "type": "uint256"
        }
      ],
      "name": "Transfer",
      "type": "event"
    },
    {
      "anonymous": false,
      "inputs": [
        {
          "indexed": true,
          "name": "_owner",
          "type": "address"
        },
        {
          "indexed": true,
          "name": "_approved",
          "type": "address"
        },
        {
          "indexed": false,
          "name": "_tokenIndex",
          "type": "uint256"
        }
      ],
      "name": "Approval",
      "type": "event"
    },
    {
      "anonymous": false,
      "inputs": [
        {
          "indexed": true,
          "name": "_owner",
          "type": "address"
        },
        {
          "indexed": true,
          "name": "_operator",
          "type": "address"
        },
        {
          "indexed": false,
          "name": "_approved",
          "type": "bool"
        }
      ],
      "name": "ApprovalForAll",
      "type": "event"
    },
    {
      "anonymous": false,
      "inputs": [],
      "name": "Pause",
      "type": "event"
    },
    {
      "anonymous": false,
      "inputs": [],
      "name": "Unpause",
      "type": "event"
    },
    {
      "anonymous": false,
      "inputs": [
        {
          "indexed": true,
          "name": "previousOwner",
          "type": "address"
        },
        {
          "indexed": true,
          "name": "newOwner",
          "type": "address"
        }
      ],
      "name": "OwnershipTransferred",
      "type": "event"
    },
    {
      "constant": false,
      "inputs": [
        {
          "name": "_gasPrice",
          "type": "uint256"
        }
      ],
      "name": "setOraclizeGasPrice",
      "outputs": [],
      "payable": false,
      "stateMutability": "nonpayable",
      "type": "function"
    },
    {
      "constant": false,
      "inputs": [
        {
          "name": "_price",
          "type": "uint256"
        }
      ],
      "name": "setPrice",
      "outputs": [],
      "payable": false,
      "stateMutability": "nonpayable",
      "type": "function"
    },
    {
      "constant": false,
      "inputs": [
        {
          "name": "_mintVerseGasLimit",
          "type": "uint256"
        },
        {
          "name": "_updateBookNameGasLimit",
          "type": "uint256"
        },
        {
          "name": "_updateNumberOfChaptersGasLimit",
          "type": "uint256"
        },
        {
          "name": "_updateChapterVersesIGasLimit",
          "type": "uint256"
        },
        {
          "name": "_updateChapterVersesIIGasLimit",
          "type": "uint256"
        }
      ],
      "name": "setOraclizeGasLimits",
      "outputs": [],
      "payable": false,
      "stateMutability": "nonpayable",
      "type": "function"
    },
    {
      "constant": false,
      "inputs": [
        {
          "name": "_url",
          "type": "string"
        }
      ],
      "name": "setURL",
      "outputs": [],
      "payable": false,
      "stateMutability": "nonpayable",
      "type": "function"
    },
    {
      "constant": false,
      "inputs": [
        {
          "name": "_booksCompleted",
          "type": "uint8"
        },
        {
          "name": "_currentBookName",
          "type": "string"
        },
        {
          "name": "_currentNumberOfChapters",
          "type": "uint8"
        },
        {
          "name": "_currentChapterVersesNumber",
          "type": "uint8"
        },
        {
          "name": "_currentChapterNumber",
          "type": "uint8"
        },
        {
          "name": "_currentVerseNumber",
          "type": "uint8"
        }
      ],
      "name": "setStateVariables",
      "outputs": [],
      "payable": false,
      "stateMutability": "nonpayable",
      "type": "function"
    },
    {
      "constant": false,
      "inputs": [
        {
          "name": "_tokenIndex",
          "type": "uint256"
        },
        {
          "name": "_bookName",
          "type": "string"
        },
        {
          "name": "_chapterNumber",
          "type": "uint8"
        },
        {
          "name": "_verseNumber",
          "type": "uint8"
        },
        {
          "name": "_verseText",
          "type": "string"
        }
      ],
      "name": "auditVerse",
      "outputs": [],
      "payable": false,
      "stateMutability": "nonpayable",
      "type": "function"
    },
    {
      "constant": true,
      "inputs": [
        {
          "name": "_book",
          "type": "string"
        },
        {
          "name": "_chapter",
          "type": "uint8"
        },
        {
          "name": "_verse",
          "type": "uint8"
        }
      ],
      "name": "retrieveVerse",
      "outputs": [
        {
          "name": "",
          "type": "string"
        }
      ],
      "payable": false,
      "stateMutability": "view",
      "type": "function"
    },
    {
      "constant": false,
      "inputs": [],
      "name": "addFunds",
      "outputs": [
        {
          "name": "",
          "type": "string"
        }
      ],
      "payable": true,
      "stateMutability": "payable",
      "type": "function"
    },
    {
      "constant": true,
      "inputs": [],
      "name": "contractBalance",
      "outputs": [
        {
          "name": "",
          "type": "uint256"
        }
      ],
      "payable": false,
      "stateMutability": "view",
      "type": "function"
    },
    {
      "constant": false,
      "inputs": [],
      "name": "withdrawBalance",
      "outputs": [],
      "payable": false,
      "stateMutability": "nonpayable",
      "type": "function"
    }
  ],
  "bytecode": "0x6003805460c060020a60ff021916905566d529ae9e860000601155621e8480601255620f42406013819055601481905560158190556016556017805462ffffff1916905560c0604052600a60808190527f4269626c65546f6b656e0000000000000000000000000000000000000000000060a09081526200008491601891906200058c565b506040805180820190915260028082527f42540000000000000000000000000000000000000000000000000000000000006020909201918252620000cb916019916200058c565b50348015620000d957600080fd5b506003805464010000000033027fffffffffffffffff0000000000000000000000000000000000000000ffffffff9091161790557f01ffc9a7000000000000000000000000000000000000000000000000000000006000908152600460208181527f9fe05126d2d9ecf60592e254dead906a4b2e492f36cca727682c38e9008c6ac1805460ff199081166001908117909255604080517f6973417070726f766564466f72416c6c28616464726573732c6164647265737381527f29000000000000000000000000000000000000000000000000000000000000008186015281519081900360210181207f676574417070726f7665642875696e7432353629000000000000000000000000825282519182900360140182207f736574417070726f76616c466f72416c6c28616464726573732c626f6f6c29008352835192839003601f0183207f617070726f766528616464726573732c75696e74323536290000000000000000845284519384900360180184207f7472616e7366657246726f6d28616464726573732c616464726573732c75696e85527f7432353629000000000000000000000000000000000000000000000000000000858a015285519485900360250185207f736166655472616e7366657246726f6d28616464726573732c616464726573738087527f2c75696e74323536290000000000000000000000000000000000000000000000878c015287519687900360290187209087527f2c75696e743235362c6279746573290000000000000000000000000000000000878c0152875196879003602f0187207f6f776e65724f662875696e743235362900000000000000000000000000000000885288519788900360100188207f62616c616e63654f6628616464726573732900000000000000000000000000008952895198899003601201892018181818181818187fffffffff00000000000000000000000000000000000000000000000000000000908116885286865282882080548516861790557f746f74616c537570706c792829000000000000000000000000000000000000008252825191829003600d0182208116885286865282882080548516861790557f73796d626f6c2829000000000000000000000000000000000000000000000000825282519182900360080182207f6e616d6528290000000000000000000000000000000000000000000000000000835283519283900360060183201816875294845280862080549092169092179055608083018152604b8084527f786d6c28516d57484d3651316a4c6e3554737a4d515659764c61536a336275679284019283527f3271536b574765793345784447796f595179292e7870617468282f4269626c65918401919091527f2f426f6f6b5b4069643d27000000000000000000000000000000000000000000606090930192909252620004fe92916200058c565b506001805460ff191690556040805180820190915260078082527f47656e657369730000000000000000000000000000000000000000000000000060209092019182526200054f916002916200058c565b5060038054630100000062010000603260ff199093169290921761ff001916611f001762ff000019169190911763ff000000191617905562000631565b828054600181600116156101000203166002900490600052602060002090601f016020900481019282601f10620005cf57805160ff1916838001178555620005ff565b82800160010185558215620005ff579182015b82811115620005ff578251825591602001919060010190620005e2565b506200060d92915062000611565b5090565b6200062e91905b808211156200060d576000815560010162000618565b90565b61425c80620006416000396000f3006080604052600436106102215763ffffffff60e060020a60003504166301ffc9a7811461022657806306fdde0314610271578063081812fc146102fb578063095ea7b31461032f57806310c5cf54146103555780631249c58b1461037c578063135e85741461038457806318160ddd146103ed5780631cbd74051461040257806323b872dd1461041757806327dc297e1461044157806333b452af1461049f57806335df3bd6146104de57806338bbfa50146104f35780633f4ba83a1461058f57806342842e0e146105a45780635c975abb146105ce5780635fd8c710146105e35780636352211e146105f85780636c2b99e6146106105780636e2387f41461064f57806370a082311461066457806371c82c1414610685578063773434081461069d5780638456cb59146106bd5780638b7afe2e146106d25780638da5cb5b146106e757806391b7f5ed146106fc57806395d89b41146107145780639894eab21461072957806399118448146107545780639b2aded414610769578063a035b1fe1461077e578063a22cb46514610793578063a26759cb146107b9578063b15b5b81146107c1578063b28725e7146107d6578063b652dd3e146107eb578063b88d4fde14610800578063b9b8af0b14610839578063be0e95a51461084e578063d0c5e63a14610863578063d523be0414610878578063d94da8011461088d578063e985e9c5146108a2578063f2fde38b146108c9578063f71fe149146108ea575b600080fd5b34801561023257600080fd5b5061025d7bffffffffffffffffffffffffffffffffffffffffffffffffffffffff196004351661090e565b604080519115158252519081900360200190f35b34801561027d57600080fd5b50610286610946565b6040805160208082528351818301528351919283929083019185019080838360005b838110156102c05781810151838201526020016102a8565b50505050905090810190601f1680156102ed5780820380516001836020036101000a031916815260200191505b509250505060405180910390f35b34801561030757600080fd5b506103136004356109dd565b60408051600160a060020a039092168252519081900360200190f35b34801561033b57600080fd5b50610353600160a060020a0360043516602435610a1f565b005b34801561036157600080fd5b5061036a610b66565b60408051918252519081900360200190f35b610353610b6c565b34801561039057600080fd5b506040805160206004803580820135601f81018490048402850184019095528484526102869436949293602493928401919081908401838280828437509497505060ff8535811696506020909501359094169350610bcf92505050565b3480156103f957600080fd5b5061036a610ea1565b34801561040e57600080fd5b5061036a610ea7565b34801561042357600080fd5b50610353600160a060020a0360043581169060243516604435610ead565b34801561044d57600080fd5b5060408051602060046024803582810135601f8101859004850286018501909652858552610353958335953695604494919390910191908190840183828082843750949750610f9a9650505050505050565b3480156104ab57600080fd5b5061035360ff60048035821691602480359081019201359060443581169060643581169060843581169060a43516611099565b3480156104ea57600080fd5b5061028661113e565b3480156104ff57600080fd5b5060408051602060046024803582810135601f810185900485028601850190965285855261035395833595369560449491939091019190819084018382808284375050604080516020601f89358b018035918201839004830284018301909452808352979a9998810197919650918201945092508291508401838280828437509497506111c99650505050505050565b34801561059b57600080fd5b506103536111ce565b3480156105b057600080fd5b50610353600160a060020a0360043581169060243516604435611252565b3480156105da57600080fd5b5061025d61126e565b3480156105ef57600080fd5b5061035361127e565b34801561060457600080fd5b506103136004356112e3565b34801561061c57600080fd5b5061035360048035906024803580820192908101359160ff60443581169260643590911691608435908101910135611307565b34801561065b57600080fd5b5061036a611415565b34801561067057600080fd5b5061036a600160a060020a036004351661141b565b34801561069157600080fd5b5061035360043561144e565b3480156106a957600080fd5b506103536004803560248101910135611491565b3480156106c957600080fd5b506103536114d4565b3480156106de57600080fd5b5061036a61155d565b3480156106f357600080fd5b50610313611565565b34801561070857600080fd5b5061035360043561157c565b34801561072057600080fd5b506102866115cb565b34801561073557600080fd5b5061073e61162c565b6040805160ff9092168252519081900360200190f35b34801561076057600080fd5b5061073e611635565b34801561077557600080fd5b5061073e611645565b34801561078a57600080fd5b5061036a61164e565b34801561079f57600080fd5b50610353600160a060020a03600435166024351515611654565b6102866116d7565b3480156107cd57600080fd5b5061073e61170e565b3480156107e257600080fd5b5061025d611717565b3480156107f757600080fd5b5061036a611726565b34801561080c57600080fd5b50610353600160a060020a036004803582169160248035909116916044359160643590810191013561172c565b34801561084557600080fd5b5061025d61176f565b34801561085a57600080fd5b5061035361177d565b34801561086f57600080fd5b5061073e6117e8565b34801561088457600080fd5b5061073e6117f7565b34801561089957600080fd5b5061036a611805565b3480156108ae57600080fd5b5061025d600160a060020a036004358116906024351661180b565b3480156108d557600080fd5b50610353600160a060020a0360043516611866565b3480156108f657600080fd5b50610353600435602435604435606435608435611917565b7bffffffffffffffffffffffffffffffffffffffffffffffffffffffff19811660009081526004602052604090205460ff165b919050565b60188054604080516020601f60026000196101006001881615020190951694909404938401819004810282018101909252828152606093909290918301828280156109d25780601f106109a7576101008083540402835291602001916109d2565b820191906000526020600020905b8154815290600101906020018083116109b557829003601f168201915b505050505090505b90565b6000818152600560205260408120548290600160a060020a03161515610a0257600080fd5b5050600090815260066020526040902054600160a060020a031690565b6000818152600560205260408120548290600160a060020a031633811480610a6a5750600160a060020a038116600090815260086020908152604080832033845290915290205460ff165b1515610a7557600080fd5b6000848152600560205260409020548490600160a060020a03161515610a9a57600080fd5b600085815260056020526040902054600160a060020a0390811694508616841415610ac457600080fd5b600085815260066020526040902054600160a060020a0316158015610af05750600160a060020a038616155b15610afa57600080fd5b6000858152600660209081526040918290208054600160a060020a031916600160a060020a038a8116918217909255835189815293519093918816927f8c5be1e5ebec7d5bd14f71427d1e84f3dd0314c0f7b2291e5b200ac8c7c3b925928290030190a3505050505050565b60135481565b601754610100900460ff1615610b8157600080fd5b600154604160ff90911610610b9557600080fd5b601154341480610bb2575060175462010000900460ff1615156001145b1515610bbd57600080fd5b610bc5611965565b610bcd6119b4565b565b60606000808460ff16118015610be9575060968460ff1611155b1515610bf457600080fd5b60008360ff16118015610c0b575060b08360ff1611155b1515610c1657600080fd5b5060005b600954811015610e3957846040518082805190602001908083835b60208310610c545780518252601f199092019160209182019101610c35565b5181516020939093036101000a600019018019909116921691909117905260405192018290039091206009805491945092508491508110610c9157fe5b90600052602060002090600302016000016040518082805460018160011615610100020316600290048015610cfd5780601f10610cdb576101008083540402835291820191610cfd565b820191906000526020600020905b815481529060010190602001808311610ce9575b5050915050604051809103902060001916148015610d4257508360ff16600982815481101515610d2957fe5b600091825260209091206001600390920201015460ff16145b8015610d7a57508260ff16600982815481101515610d5c57fe5b6000918252602090912060039091020160010154610100900460ff16145b15610e31576009805482908110610d8d57fe5b600091825260209182902060026003909202018101805460408051601f600019610100600186161502019093169490940491820185900485028401850190528083529192909190830182828015610e255780601f10610dfa57610100808354040283529160200191610e25565b820191906000526020600020905b815481529060010190602001808311610e0857829003601f168201915b50505050509150610e99565b600101610c1a565b606060405190810160405280602781526020017f5665727365206e6f74206d696e7465642c206f7220696e76616c69642061726781526020017f756d656e74732e0000000000000000000000000000000000000000000000000081525091505b509392505050565b60095490565b60125481565b6000818152600560205260408120548290600160a060020a031633811480610eeb5750600082815260066020526040902054600160a060020a031633145b80610f195750600160a060020a038116600090815260086020908152604080832033845290915290205460ff165b1515610f2457600080fd5b6000848152600560205260409020548490600160a060020a03161515610f4957600080fd5b600085815260056020526040902054600160a060020a03908116945087168414610f7257600080fd5b600160a060020a0386161515610f8757600080fd5b610f918686611c55565b50505050505050565b610fa2611cdb565b600160a060020a03163314610fb657600080fd5b6000828152600f602052604081205460ff166003811115610fd357fe5b141561100857610fe38282611ed0565b6017805460ff19811660ff918216600019019091161790556110036120a9565b611095565b60016000838152600f602052604090205460ff16600381111561102757fe5b141561103757610fe382826120c2565b60026000838152600f602052604090205460ff16600381111561105657fe5b141561106657610fe38282612100565b60036000838152600f602052604090205460ff16600381111561108557fe5b141561022157610fe3828261212d565b5050565b6003546401000000009004600160a060020a031633146110b857600080fd5b60035460c060020a900460ff1615156110d057600080fd5b6001805460ff191660ff89161790556110eb600287876140bf565b506003805460ff191660ff9586161761ff001916610100948616949094029390931762ff0000191662010000928516929092029190911763ff000000191663010000009190931602919091179055505050565b6002805460408051602060018416156101000260001901909316849004601f810184900484028201840190925281815292918301828280156111c15780601f10611196576101008083540402835291602001916111c1565b820191906000526020600020905b8154815290600101906020018083116111a457829003601f168201915b505050505081565b505050565b6003546401000000009004600160a060020a031633146111ed57600080fd5b60035460c060020a900460ff16151561120557600080fd5b6003805478ff000000000000000000000000000000000000000000000000191690556040517f7805862f689e2f13df9f062ff482ad3ad112aca9e0847911ed832e158c525b3390600090a1565b6111c98383836020604051908101604052806000815250612162565b60035460c060020a900460ff1681565b6003546000906401000000009004600160a060020a031633146112a057600080fd5b503031600081116112b057600080fd5b600354604051640100000000909104600160a060020a0316906108fc8315029083906000818181858888f1505050505050565b600081815260056020526040902054600160a060020a031680151561094157600080fd5b6003546401000000009004600160a060020a0316331461132657600080fd5b60035460c060020a900460ff16151561133e57600080fd5b858560098981548110151561134f57fe5b6000918252602090912061136993600390920201916140bf565b508360098881548110151561137a57fe5b906000526020600020906003020160010160006101000a81548160ff021916908360ff160217905550826009888154811015156113b357fe5b906000526020600020906003020160010160016101000a81548160ff021916908360ff16021790555081816009898154811015156113ed57fe5b9060005260206000209060030201600201919061140b9291906140bf565b5050505050505050565b60155481565b6000600160a060020a038216151561143257600080fd5b50600160a060020a031660009081526007602052604090205490565b6003546401000000009004600160a060020a0316331461146d57600080fd5b60035460c060020a900460ff16151561148557600080fd5b61148e816123eb565b50565b6003546401000000009004600160a060020a031633146114b057600080fd5b60035460c060020a900460ff1615156114c857600080fd5b6111c9600083836140bf565b6003546401000000009004600160a060020a031633146114f357600080fd5b60035460c060020a900460ff161561150a57600080fd5b6003805478ff000000000000000000000000000000000000000000000000191660c060020a1790556040517f6985a02210a168e66602d3235cb6db0e70f92b3ba4d376a33c0f3d9434bff62590600090a1565b3031805b5090565b6003546401000000009004600160a060020a031681565b6003546000906401000000009004600160a060020a0316331461159e57600080fd5b60035460c060020a900460ff1615156115b657600080fd5b6064670de0b6b3a76400008302046011555050565b60198054604080516020601f60026000196101006001881615020190951694909404938401819004810282018101909252828152606093909290918301828280156109d25780601f106109a7576101008083540402835291602001916109d2565b60015460ff1681565b6003546301000000900460ff1681565b60175460ff1681565b60115481565b600160a060020a038216151561166957600080fd5b336000818152600860209081526040808320600160a060020a03871680855290835292819020805460ff1916861515908117909155815190815290519293927f17307eab39ab6107e8899845ad3d59bd9653f200f220920489ca2b5937696c31929181900390910190a35050565b60408051808201909152601981527f5375636365737366756c6c792061646465642066756e64732e00000000000000602082015290565b60035460ff1681565b60175462010000900460ff1681565b60165481565b61176885858585858080601f01602080910402602001604051908101604052809392919081815260200183838082843750612162945050505050565b5050505050565b601754610100900460ff1681565b6003546401000000009004600160a060020a0316331461179c57600080fd5b601754610100900460ff1615156117b257600080fd5b6017805461ffff191690556040517f6426a220e8910820230d4f2e29cc2bee7c13058ff2524cbcc4d823ba49aa2f6690600090a1565b60035462010000900460ff1681565b600354610100900460ff1681565b60145481565b6000600160a060020a038316151561182257600080fd5b600160a060020a038216151561183757600080fd5b50600160a060020a03918216600090815260086020908152604080832093909416825291909152205460ff1690565b6003546401000000009004600160a060020a0316331461188557600080fd5b600160a060020a038116151561189a57600080fd5b600354604051600160a060020a0380841692640100000000900416907f8be0079c531659141344cd1fd0a4f28419497f9722a3daafe3b4186f6b6457e090600090a360038054600160a060020a039092166401000000000277ffffffffffffffffffffffffffffffffffffffff0000000019909216919091179055565b6003546401000000009004600160a060020a0316331461193657600080fd5b60035460c060020a900460ff16151561194e57600080fd5b601294909455601392909255601455601555601655565b601754610100900460ff161561197a57600080fd5b6017805461ff0019166101001790556040517fa8d1ea886eaf8bd3d113c770bf7af546123c70e235b0d036ff752d5e920a7b5690600090a1565b606060006119e060408051908101604052806004815260200160e060020a6349504653028152506125d3565b3031116119ec57600080fd5b6000805460408051602060026001851615610100026000190190941693909304601f81018490048402820184019092528181529291830182828015611a725780601f10611a4757610100808354040283529160200191611a72565b820191906000526020600020905b815481529060010190602001808311611a5557829003601f168201915b50505050509150611b1d82611a9b600160009054906101000a900460ff1660010160ff1661283b565b60408051808201909152601081527f275d2f436861707465725b4069643d27000000000000000000000000000000006020820152600354611ae49062010000900460ff1661283b565b60408051808201909152600e81527f275d2f56657273655b4069643d27000000000000000000000000000000000000602082015261292e565b600354909250611b75908390611b3c906301000000900460ff1661283b565b60408051808201909152600a81527f275d2f74657874282929000000000000000000000000000000000000000000006020820152612b8f565b9150611ba360408051908101604052806004815260200160e060020a63495046530281525083601254612bc6565b6017805460ff8082166001011660ff19918216179091556000828152600f6020908152604080832080549094169093556010815290829020805433600160a060020a03199091161790558151818152808201919091527f51756572792073656e743b206177616974696e6720726573706f6e73652e2e2e8183015290519192507fd7789a3deb1d0944b7966c5d18037fc5b3a0a17236de9e7c20fe3a6345167295916060918190039190910190a15050565b600081815260056020526040902054600160a060020a0316611c778183612fc9565b611c818183613026565b611c8b83836130cf565b82600160a060020a031681600160a060020a03167fddf252ad1be2c89b69c2b068fc378daa952ba7f163c4a11628f55a4df523b3ef846040518082815260200191505060405180910390a3505050565b600a54600090600160a060020a03161580611d085750600a54611d0690600160a060020a0316613153565b155b15611d1957611d176000613157565b505b600a60009054906101000a9004600160a060020a0316600160a060020a03166338cc48316040518163ffffffff1660e060020a028152600401602060405180830381600087803b158015611d6c57600080fd5b505af1158015611d80573d6000803e3d6000fd5b505050506040513d6020811015611d9657600080fd5b5051600b54600160a060020a03908116911614611e4c57600a60009054906101000a9004600160a060020a0316600160a060020a03166338cc48316040518163ffffffff1660e060020a028152600401602060405180830381600087803b158015611e0057600080fd5b505af1158015611e14573d6000803e3d6000fd5b505050506040513d6020811015611e2a57600080fd5b5051600b8054600160a060020a031916600160a060020a039092169190911790555b600b60009054906101000a9004600160a060020a0316600160a060020a031663c281d19e6040518163ffffffff1660e060020a028152600401602060405180830381600087803b158015611e9f57600080fd5b505af1158015611eb3573d6000803e3d6000fd5b505050506040513d6020811015611ec957600080fd5b5051905090565b611ed8614139565b604080516002805460a06020601f600019610100600186161502019093168490049283018190040284018101909452608083018181526000948493919290840182828015611f675780601f10611f3c57610100808354040283529160200191611f67565b820191906000526020600020905b815481529060010190602001808311611f4a57829003601f168201915b505050918352505060035460ff6201000082048116602084015263010000009091041660408201526060908101859052810151519092501515611fa657fe5b60098054600181810180845560009390935284518051919392869260039091027f6e1540171b6c0c960b71a7020d9f60077f6af931a8bbf590da0223dacf75c7af0191611ff891839160200190614168565b50602082810151600183018054604086015160ff9081166101000261ff00199190941660ff199092169190911716919091179055606083015180516120439260028501920190614168565b505050600086815260106020526040902054919003915061206d90600160a060020a031682613167565b6000848152600f60209081526040808320805460ff19169055601090915290208054600160a060020a03191690556120a36133cf565b50505050565b60175460ff1615156120bd576120bd6133d7565b610bcd565b6120cb81613449565b6003805460ff929092166101000261ff00199092169190911790556000828152600f60205260409020805460ff191690555050565b8051612113906002906020840190614168565b50506000908152600f60205260409020805460ff19169055565b61213681613449565b6003805460ff9290921660ff199283161790556000838152600f60205260409020805490911690555050565b60008281526005602052604081205481908490600160a060020a0316338114806121a25750600082815260066020526040902054600160a060020a031633145b806121d05750600160a060020a038116600090815260086020908152604080832033845290915290205460ff165b15156121db57600080fd5b6000868152600560205260409020548690600160a060020a0316151561220057600080fd5b600087815260056020526040902054600160a060020a0390811695508916851461222957600080fd5b600160a060020a038816151561223e57600080fd5b6122488888611c55565b61225a88600160a060020a0316613456565b156123e05787600160a060020a031663f0b9e5ba8a89896040518463ffffffff1660e060020a0281526004018084600160a060020a0316600160a060020a0316815260200183815260200180602001828103825283818151815260200191508051906020019080838360005b838110156122de5781810151838201526020016122c6565b50505050905090810190601f16801561230b5780820380516001836020036101000a031916815260200191505b50945050505050602060405180830381600087803b15801561232c57600080fd5b505af1158015612340573d6000803e3d6000fd5b505050506040513d602081101561235657600080fd5b5051604080517f6f6e455243373231526563656976656428616464726573732c75696e7432353681527f2c62797465732900000000000000000000000000000000000000000000000000602082015290519081900360270190209094507bffffffffffffffffffffffffffffffffffffffffffffffffffffffff198086169116146123e057600080fd5b505050505050505050565b600a54600160a060020a031615806124155750600a5461241390600160a060020a0316613153565b155b15612426576124246000613157565b505b600a60009054906101000a9004600160a060020a0316600160a060020a03166338cc48316040518163ffffffff1660e060020a028152600401602060405180830381600087803b15801561247957600080fd5b505af115801561248d573d6000803e3d6000fd5b505050506040513d60208110156124a357600080fd5b5051600b54600160a060020a0390811691161461255957600a60009054906101000a9004600160a060020a0316600160a060020a03166338cc48316040518163ffffffff1660e060020a028152600401602060405180830381600087803b15801561250d57600080fd5b505af1158015612521573d6000803e3d6000fd5b505050506040513d602081101561253757600080fd5b5051600b8054600160a060020a031916600160a060020a039092169190911790555b600b54604080517fca6ad1e4000000000000000000000000000000000000000000000000000000008152600481018490529051600160a060020a039092169163ca6ad1e49160248082019260009290919082900301818387803b1580156125bf57600080fd5b505af1158015611768573d6000803e3d6000fd5b600a54600090600160a060020a031615806126005750600a546125fe90600160a060020a0316613153565b155b156126115761260f6000613157565b505b600a60009054906101000a9004600160a060020a0316600160a060020a03166338cc48316040518163ffffffff1660e060020a028152600401602060405180830381600087803b15801561266457600080fd5b505af1158015612678573d6000803e3d6000fd5b505050506040513d602081101561268e57600080fd5b5051600b54600160a060020a0390811691161461274457600a60009054906101000a9004600160a060020a0316600160a060020a03166338cc48316040518163ffffffff1660e060020a028152600401602060405180830381600087803b1580156126f857600080fd5b505af115801561270c573d6000803e3d6000fd5b505050506040513d602081101561272257600080fd5b5051600b8054600160a060020a031916600160a060020a039092169190911790555b600b546040517f524f3889000000000000000000000000000000000000000000000000000000008152602060048201818152855160248401528551600160a060020a039094169363524f388993879383926044909201919085019080838360005b838110156127bd5781810151838201526020016127a5565b50505050905090810190601f1680156127ea5780820380516001836020036101000a031916815260200191505b5092505050602060405180830381600087803b15801561280957600080fd5b505af115801561281d573d6000803e3d6000fd5b505050506040513d602081101561283357600080fd5b505192915050565b606060008082818515156128845760408051808201909152600181527f300000000000000000000000000000000000000000000000000000000000000060208201529450612925565b8593505b831561289f57600190920191600a84049350612888565b826040519080825280601f01601f1916602001820160405280156128cd578160200160208202803883390190505b5091505060001982015b851561292157815160001982019160f860020a6030600a8a0601029184919081106128fe57fe5b906020010190600160f860020a031916908160001a905350600a860495506128d7565b8194505b50505050919050565b6060806060806060806060806000808e98508d97508c96508b95508a94508451865188518a518c51010101016040519080825280601f01601f191660200182016040528015612987578160200160208202803883390190505b50935083925060009150600090505b88518110156129f45788818151811015156129ad57fe5b90602001015160f860020a900460f860020a0283838060010194508151811015156129d457fe5b906020010190600160f860020a031916908160001a905350600101612996565b5060005b8751811015612a56578781815181101515612a0f57fe5b90602001015160f860020a900460f860020a028383806001019450815181101515612a3657fe5b906020010190600160f860020a031916908160001a9053506001016129f8565b5060005b8651811015612ab8578681815181101515612a7157fe5b90602001015160f860020a900460f860020a028383806001019450815181101515612a9857fe5b906020010190600160f860020a031916908160001a905350600101612a5a565b5060005b8551811015612b1a578581815181101515612ad357fe5b90602001015160f860020a900460f860020a028383806001019450815181101515612afa57fe5b906020010190600160f860020a031916908160001a905350600101612abc565b5060005b8451811015612b7c578481815181101515612b3557fe5b90602001015160f860020a900460f860020a028383806001019450815181101515612b5c57fe5b906020010190600160f860020a031916908160001a905350600101612b1e565b50909d9c50505050505050505050505050565b6060612bbe8484846020604051908101604052806000815250602060405190810160405280600081525061292e565b949350505050565b600a546000908190600160a060020a03161580612bf55750600a54612bf390600160a060020a0316613153565b155b15612c0657612c046000613157565b505b600a60009054906101000a9004600160a060020a0316600160a060020a03166338cc48316040518163ffffffff1660e060020a028152600401602060405180830381600087803b158015612c5957600080fd5b505af1158015612c6d573d6000803e3d6000fd5b505050506040513d6020811015612c8357600080fd5b5051600b54600160a060020a03908116911614612d3957600a60009054906101000a9004600160a060020a0316600160a060020a03166338cc48316040518163ffffffff1660e060020a028152600401602060405180830381600087803b158015612ced57600080fd5b505af1158015612d01573d6000803e3d6000fd5b505050506040513d6020811015612d1757600080fd5b5051600b8054600160a060020a031916600160a060020a039092169190911790555b600b54604080517f2ef3accc0000000000000000000000000000000000000000000000000000000081526024810186905260048101918252875160448201528751600160a060020a0390931692632ef3accc9289928892829160640190602086019080838360005b83811015612db9578181015183820152602001612da1565b50505050905090810190601f168015612de65780820380516001836020036101000a031916815260200191505b509350505050602060405180830381600087803b158015612e0657600080fd5b505af1158015612e1a573d6000803e3d6000fd5b505050506040513d6020811015612e3057600080fd5b50519050670de0b6b3a76400003a840201811115612e515760009150610e99565b600b546040517fc51be90f00000000000000000000000000000000000000000000000000000000815260006004820181815260648301879052608060248401908152895160848501528951600160a060020a039095169463c51be90f948794938c938c938c93604481019160a49091019060208801908083838c5b83811015612ee4578181015183820152602001612ecc565b50505050905090810190601f168015612f115780820380516001836020036101000a031916815260200191505b50838103825285518152855160209182019187019080838360005b83811015612f44578181015183820152602001612f2c565b50505050905090810190601f168015612f715780820380516001836020036101000a031916815260200191505b5096505050505050506020604051808303818588803b158015612f9357600080fd5b505af1158015612fa7573d6000803e3d6000fd5b50505050506040513d6020811015612fbe57600080fd5b505195945050505050565b60008181526006602090815260408083208054600160a060020a031916905580518481529051600160a060020a038616927f8c5be1e5ebec7d5bd14f71427d1e84f3dd0314c0f7b2291e5b200ac8c7c3b925928290030190a35050565b600081815260056020526040902054600160a060020a0383811691161461304c57600080fd5b600160a060020a0382166000908152600760205260408120541161306c57fe5b600160a060020a03821660009081526007602052604090205461309690600163ffffffff61345e16565b600160a060020a039092166000908152600760209081526040808320949094559181526005909152208054600160a060020a0319169055565b600081815260056020526040902054600160a060020a0316156130f157600080fd5b60008181526005602090815260408083208054600160a060020a031916600160a060020a03871690811790915583526007909152902054613133906001613470565b600160a060020a0390921660009081526007602052604090209190915550565b3b90565b6000613161613486565b92915050565b600160a060020a038216151561317957fe5b600081815260056020526040902054600160a060020a03161561319857fe5b6131a282826137ae565b7ffbecfb053d2f151b59371e34072d9aa8d7ec310b227c3ccce2636d0352bbf137826009838154811015156131d357fe5b90600052602060002090600302016000016009848154811015156131f357fe5b60009182526020909120600160039092020101546009805460ff909216918690811061321b57fe5b906000526020600020906003020160010160019054906101000a900460ff1660098681548110151561324957fe5b600091825260209182902060408051600160a060020a038916815260ff80881692820192909252908516606082015260a0938101848152875460026000196101006001841615020190911681900495830186905260039094029092019290920192608083019060c0840190889080156133035780601f106132d857610100808354040283529160200191613303565b820191906000526020600020905b8154815290600101906020018083116132e657829003601f168201915b50508381038252845460026000196101006001841615020190911604808252602090910190859080156133775780601f1061334c57610100808354040283529160200191613377565b820191906000526020600020905b81548152906001019060200180831161335a57829003601f168201915b505097505050505050505060405180910390a1604080518281529051600160a060020a038416916000917fddf252ad1be2c89b69c2b068fc378daa952ba7f163c4a11628f55a4df523b3ef9181900360200190a35050565b610bcd6137b8565b601754610100900460ff1615156133ed57600080fd5b6017805461ff00191690556040517f6426a220e8910820230d4f2e29cc2bee7c13058ff2524cbcc4d823ba49aa2f6690600090a166d529ae9e860000303110610bcd576017805462ff0000191662010000179055610bcd6137fb565b6000613161826000613811565b6000903b1190565b60008282111561346a57fe5b50900390565b60008282018381101561347f57fe5b9392505050565b6000806134a6731d3b2638a7cc9f2cb3d298a3da7a90b67e5506ed613153565b111561351757600a8054600160a060020a031916731d3b2638a7cc9f2cb3d298a3da7a90b67e5506ed17905560408051808201909152600b81527f6574685f6d61696e6e6574000000000000000000000000000000000000000000602082015261350f90613983565b5060016109da565b600061353673c03a2615d5efaf5f49f60b7bb6583eaec212fdf1613153565b111561359f57600a8054600160a060020a03191673c03a2615d5efaf5f49f60b7bb6583eaec212fdf117905560408051808201909152600c81527f6574685f726f707374656e330000000000000000000000000000000000000000602082015261350f90613983565b60006135be73b7a07bcf2ba2f2703b24c0691b5278999c59ac7e613153565b111561362757600a8054600160a060020a03191673b7a07bcf2ba2f2703b24c0691b5278999c59ac7e17905560408051808201909152600981527f6574685f6b6f76616e0000000000000000000000000000000000000000000000602082015261350f90613983565b600061364673146500cfd35b22e4a392fe0adc06de1a1368ed48613153565b11156136af57600a8054600160a060020a03191673146500cfd35b22e4a392fe0adc06de1a1368ed4817905560408051808201909152600b81527f6574685f72696e6b656279000000000000000000000000000000000000000000602082015261350f90613983565b60006136ce736f485c8bf6fc43ea212e93bbf8ce046c7f1cb475613153565b11156137025750600a8054600160a060020a031916736f485c8bf6fc43ea212e93bbf8ce046c7f1cb47517905560016109da565b60006137217320e12a1f859b3feae5fb2a0a32c18f5a65555bbf613153565b11156137555750600a8054600160a060020a0319167320e12a1f859b3feae5fb2a0a32c18f5a65555bbf17905560016109da565b60006137747351efaf4c8b3c9afbd5ab9f4bbc82784ab6ef8faa613153565b11156137a85750600a8054600160a060020a0319167351efaf4c8b3c9afbd5ab9f4bbc82784ab6ef8faa17905560016109da565b50600090565b61109582826130cf565b60038054600160ff63010000008084048216929092018116820263ff0000001990931692909217928390556101008304821692041611156120bd576120bd613996565b613803610b6c565b6017805462ff000019169055565b6000828180805b83518110156139665783517f30000000000000000000000000000000000000000000000000000000000000009085908390811061385157fe5b90602001015160f860020a900460f860020a02600160f860020a031916101580156138c7575083517f3900000000000000000000000000000000000000000000000000000000000000908590839081106138a757fe5b90602001015160f860020a900460f860020a02600160f860020a03191611155b156139205781156138e6578515156138de57613966565b600019909501945b600a83029250603084828151811015156138fc57fe5b90602001015160f860020a900460f860020a0260f860020a9004038301925061395e565b838181518110151561392e57fe5b90602001015160f860020a900460f860020a02600160f860020a031916602e60f860020a02141561395e57600191505b600101613818565b60008611156139785785600a0a830292505b509095945050505050565b805161109590600c906020840190614168565b600380546201000063ff0000001990911663010000001781810460ff9081166001018116830262ff00001990921691909117928390558281169190920490911611156139e4576120bd6139ec565b610bcd613a77565b6003805462ff000019166201000017905560018054604160ff918216909201161015613a4457613a1a613ca9565b613a22613e2c565b613a2a613faf565b6001805460ff80821683011660ff19909116179055610bcd565b6001805460ff80821683011660ff19909116179055613a65600260006141d6565b6003805463ffffffff19169055610bcd565b60606000613aa360408051908101604052806004815260200160e060020a6349504653028152506125d3565b303111613aaf57600080fd5b6000805460408051602060026001851615610100026000190190941693909304601f81018490048402820184019092528181529291830182828015613b355780601f10613b0a57610100808354040283529160200191613b35565b820191906000526020600020905b815481529060010190602001808311613b1857829003601f168201915b50505050509150613be082613b5e600160009054906101000a900460ff1660010160ff1661283b565b60408051808201909152601081527f275d2f436861707465725b4069643d27000000000000000000000000000000006020820152600354613ba79062010000900460ff1661283b565b60408051808201909152601981527f275d2f6e756d6265724f665665727365732f7465787428292900000000000000602082015261292e565b9150613c0e60408051908101604052806004815260200160e060020a63495046530281525083601554612bc6565b6017805460ff808216600190810190911660ff19928316179092556000838152600f60205260409020805493945091921682805b0217905550604080516020808252808201527f51756572792073656e743b206177616974696e6720726573706f6e73652e2e2e8183015290517fd7789a3deb1d0944b7966c5d18037fc5b3a0a17236de9e7c20fe3a63451672959181900360600190a15050565b60606000613cd560408051908101604052806004815260200160e060020a6349504653028152506125d3565b303111613ce157600080fd5b6000805460408051602060026001851615610100026000190190941693909304601f81018490048402820184019092528181529291830182828015613d675780601f10613d3c57610100808354040283529160200191613d67565b820191906000526020600020905b815481529060010190602001808311613d4a57829003601f168201915b5050600154939550613dc493869350613d8b9250600260ff9182160116905061283b565b60408051808201909152601381527f275d2f626f6f6b4e616d652f74657874282929000000000000000000000000006020820152612b8f565b9150613df260408051908101604052806004815260200160e060020a63495046530281525083601354612bc6565b6017805460ff19808216600160ff9384168101909316179092556000838152600f6020526040902080549394506002939092169083613c42565b60606000613e5860408051908101604052806004815260200160e060020a6349504653028152506125d3565b303111613e6457600080fd5b6000805460408051602060026001851615610100026000190190941693909304601f81018490048402820184019092528181529291830182828015613eea5780601f10613ebf57610100808354040283529160200191613eea565b820191906000526020600020905b815481529060010190602001808311613ecd57829003601f168201915b5050600154939550613f4793869350613f0e9250600260ff9182160116905061283b565b60408051808201909152601b81527f275d2f6e756d6265724f6643686170746572732f7465787428292900000000006020820152612b8f565b9150613f7560408051908101604052806004815260200160e060020a63495046530281525083601454612bc6565b6017805460ff19808216600160ff9384168101909316179092556000838152600f6020526040902080549394506003939092169083613c42565b60606000613fdb60408051908101604052806004815260200160e060020a6349504653028152506125d3565b303111613fe757600080fd5b6000805460408051602060026001851615610100026000190190941693909304601f8101849004840282018401909252818152929183018282801561406d5780601f106140425761010080835404028352916020019161406d565b820191906000526020600020905b81548152906001019060200180831161405057829003601f168201915b505060015493955061409193869350613b5e9250600260ff9182160116905061283b565b9150613c0e60408051908101604052806004815260200160e060020a63495046530281525083601654612bc6565b828054600181600116156101000203166002900490600052602060002090601f016020900481019282601f106141005782800160ff1982351617855561412d565b8280016001018555821561412d579182015b8281111561412d578235825591602001919060010190614112565b50611561929150614216565b60806040519081016040528060608152602001600060ff168152602001600060ff168152602001606081525090565b828054600181600116156101000203166002900490600052602060002090601f016020900481019282601f106141a957805160ff191683800117855561412d565b8280016001018555821561412d579182015b8281111561412d5782518255916020019190600101906141bb565b50805460018160011615610100020316600290046000825580601f106141fc575061148e565b601f01602090049060005260206000209081019061148e91905b6109da91905b80821115611561576000815560010161421c5600a165627a7a723058204a49d58521eb0da086141b84632d351539b3862277d869e706777499081999470029",
  "source": "/**\n * @file BibleTokenCore.sol\n * @author John DeBord <i@johndebord.tk>\n * @date 2018\n */\n \n // TODO\n // [ ] Make function to transfer contract-owned tokens\n // [ ] Calculate maximum gas cost possible for an Oraclize query\n\npragma solidity ^0.4.20;\n\nimport \"./BibleTokenMinting.sol\";\nimport \"./BibleTokenMetadata.sol\";\n\n/**\n * @title BibleTokenCore\n * @dev This contract gets the wheels turning; initializing the \"Genesis\" state\n * variables so that we can start writing/minted the Bible to the blockchain!\n * This contract also contains the additional function to look up and read any\n * given verse that has been written blockchain.\n */\ncontract BibleTokenCore is\n    BibleTokenMinting,\n    BibleTokenMetadata\n{\n    \n    /**\n     * @dev The constructor of this contract; initialzes all state variables in\n     * accordane to the book of \"Genesis\".\n     */\n    function BibleTokenCore()\n        public\n    {\t\n        url = \"xml(QmWHM6Q1jLn5TszMQVYvLaSj3bug2qSkWGey3ExDGyoYQy).xpath(/Bible/Book[@id='\";\n        \n        booksCompleted = 0;\n        \n        currentBookName = \"Genesis\";\n        currentNumberOfChapters = 50;\n        currentChapterVersesNumber = 31;\n        currentChapterNumber = 1;\n        currentVerseNumber = 1;\n    }\n    \n    /**\n     * @dev This function is for setting the gas price for Oraclize queries.\n     * Needed for if the gas price of using the Oraclize service fluctuates.\n     * Note that only the owner can call this function and the argument passed\n     * must be in Wei.\n     * @param _gasPrice The amount if Wei to set the Oraclize gas price.\n     */\n    function setOraclizeGasPrice(\n        uint256 _gasPrice\n    )\n        onlyOwner\n        whenPaused\n        external\n    {\n        oraclize_setCustomGasPrice(_gasPrice);\n    }\n\n    /**\n     * @dev This function sets the price as to how much a user must pay in order\n     * to mint a BibleToken.\n     * @notice This funcitons argument must be given as a percentage; e.g. 3 == 0.03 Ether.\n     * @param _price The amount in Ether to set the price.\n     */\n    function setPrice(\n        uint256 _price\n    )\n        onlyOwner\n        whenPaused\n        external\n    {\n        uint256 newPrice = 1 ether * _price / 100;\n        price = newPrice;\n    }\n    \n    /**\n     * @dev This function is for setting the gas limits of the different Oraclize\n     * queries, just in case the queries need tweaking in the future.\n     * Note that only the owner can call this function and the argument passed\n     * must be in Wei.\n     * @param _mintVerseGasLimit For the mint verse query.\n     * @param _updateBookNameGasLimit For the book name query.\n     * @param _updateNumberOfChaptersGasLimit For the number of chapters query.\n     * @param _updateChapterVersesIGasLimit For the chapter verses I query.\n     * @param _updateChapterVersesIIGasLimit For the chapter verses II query.\n     */\n    function setOraclizeGasLimits(\n        uint256 _mintVerseGasLimit,\n        uint256 _updateBookNameGasLimit,\n        uint256 _updateNumberOfChaptersGasLimit,\n        uint256 _updateChapterVersesIGasLimit,\n        uint256 _updateChapterVersesIIGasLimit\n    )\n        onlyOwner\n        whenPaused\n        external\n    {\n        mintVerseGasLimit = _mintVerseGasLimit;\n        updateBookNameGasLimit = _updateBookNameGasLimit;\n        updateNumberOfChaptersGasLimit = _updateNumberOfChaptersGasLimit;\n        updateChapterVersesIGasLimit = _updateChapterVersesIGasLimit;\n        updateChapterVersesIIGasLimit = _updateChapterVersesIIGasLimit;\n    }\n    \n    /**\n     * @dev This function sets the IPFS URL that is used by this contract.\n     * Only the owner of the contract can change it. It is needed just in case\n     * something happens where the BibleData on the IPFS is compromised. Note\n     * that the new url must be specified in the format shown in the constructor.\n     * This function should never be used, but it is still a must to have it.\n     * @param _url The url state variable that may need to be audited.\n     */\n    function setURL(\n        string _url\n    )\n        onlyOwner\n        whenPaused\n        external\n    {\n        url = _url;\n    }\n    \n    /**\n     * @dev This function sets all state variables to a certain value. This function is also needed just in case\n     * there is a problem with the Oraclize API and somehow the state variables need to be reset in a way. Again,\n     * this function should never be used, but is still a must to have.\n     * @param _booksCompleted The booksCompleted state variable that may need to be audited.\n     * @param _currentBookName The currentBookName state variable that may need to be audited.\n     * @param _currentNumberOfChapters The currentNumberOfChapters state variable that may need to be audited.\n     * @param _currentChapterVersesNumber The currentChapterVersesNumber state variable that may need to be audited.\n     * @param _currentChapterNumber The currentChapterNumber state variable that may need to be audited.\n     * @param _currentVerseNumber The currentVerseNumber state variable that may need to be audited.\n     */\n    function setStateVariables(\n        uint8 _booksCompleted,\n        string _currentBookName,\n        uint8 _currentNumberOfChapters,\n        uint8 _currentChapterVersesNumber,\n        uint8 _currentChapterNumber,\n        uint8 _currentVerseNumber\n    )\n        onlyOwner\n        whenPaused\n        external\n    {\n        booksCompleted = _booksCompleted;\n        currentBookName = _currentBookName;\n        currentNumberOfChapters = _currentNumberOfChapters;\n        currentChapterVersesNumber = _currentChapterVersesNumber;\n        currentChapterNumber = _currentChapterNumber;\n        currentVerseNumber = _currentVerseNumber;\n    }\n    \n    /**\n     * @dev This function makes a correction to a verse just in case any data in a\n     * verse gets corrupted somehow. This should NEVER happen. But alas, again, this\n     * function should never be used, but is still a must to have.\n     * @param _tokenIndex The index of the token that is to be audited.\n     * @param _bookName The name of the book that may need to be audited.\n     * @param _chapterNumber The chapter number that may need to be audited.\n     * @param _verseNumber The verse number that may need to be audited.\n     * @param _verseText The text of the verse that may need to be audited.\n     */\n    function auditVerse(\n        uint256 _tokenIndex,\n        string _bookName,\n        uint8 _chapterNumber,\n        uint8 _verseNumber,\n        string _verseText\n    )\n        onlyOwner\n        whenPaused\n        external\n    {\n        tokens[_tokenIndex].bookName = _bookName;\n        tokens[_tokenIndex].chapterNumber = _chapterNumber;\n        tokens[_tokenIndex].verseNumber = _verseNumber;\n        tokens[_tokenIndex].verseText = _verseText;\n    }\n    \n    /**\n     * @dev This is the function that will allow anyone in the world that has access\n     * to the Ethereum blockchain to be able to look up any verse in the Bible that has been minted\n     * through this contract for no cost! That is the awesome part about writing the Bible\n     * to the blockchain; that once it has been written, it will remain immutable and\n     * be accessible to anyone who has access to the Ethereum blockchain.\n     * @param _book The given book of the Bible.\n     * @param _chapter The given chapter of the Bible.\n     * @param _verse The given verse of the Bible.\n     */\n    function retrieveVerse(\n        string _book,\n        uint8 _chapter,\n        uint8 _verse\n    )\n        view\n        public\n        returns (string)\n    {\n        // The maximum number of chapters that can be a book; Psalms has the most, at 150\n        require((_chapter > 0) && (_chapter <= 150));\n        // The maximum number of verses that can be in a chapter; Psalms 119 has the most at 176\n        require((_verse > 0) && (_verse <= 176));\n        \n        for(uint256 i = 0; i < tokens.length; ++i) {\n            // Using keccak256 because strings of type storage ref and string memory cannot compare\n            if(keccak256(tokens[i].bookName) == keccak256(_book) &&\n               tokens[i].chapterNumber == _chapter &&\n               tokens[i].verseNumber == _verse)\n               return tokens[i].verseText;\n        }\n\n        return \"Verse not minted, or invalid arguments.\";\n    }\n    \n    /**\n     * @dev This function is used for debugging purposes when calculating the differing\n     * Oraclize queries.\n     */\n    function addFunds()\n        external\n        payable\n        returns (string)\n    {\n        return \"Successfully added funds.\";\n    }\n    \n    /**\n     * @dev This function is used for debugging purposes when calculating the differing\n     * Oraclize queries.\n     */\n    function contractBalance()\n        external\n        view\n        returns (uint256)\n    {\n        uint256 balance = this.balance;\n        return balance;\n    }\n    \n    /**\n     * @dev Withdraws the current balance of the contract; this can only be done by the\n     * owner of the contract.\n     */\n    function withdrawBalance()\n        onlyOwner\n        external\n    {\n        uint256 balance = this.balance;\n        require(balance > 0);\n        owner.send(balance);\n    }\n    \n}\n",
  "sourcePath": "/home/i/BibleToken/contracts/BibleTokenCore.sol",
  "compiler": {
    "name": "solc",
    "version": "0.4.24+commit.e67f0147.Emscripten.clang"
  },
  "schemaVersion": "2.0.0",
  "updatedAt": "2018-07-07T04:01:50.624Z"
}