{
  "contractName": "SupportsInterface",
  "abi": [
    {
      "inputs": [],
      "payable": false,
      "stateMutability": "nonpayable",
      "type": "constructor"
    },
    {
      "constant": true,
      "inputs": [
        {
          "name": "_interfaceId",
          "type": "bytes4"
        }
      ],
      "name": "supportsInterface",
      "outputs": [
        {
          "name": "",
          "type": "bool"
        }
      ],
      "payable": false,
      "stateMutability": "view",
      "type": "function"
    }
  ],
  "bytecode": "0x608060405234801561001057600080fd5b507f01ffc9a70000000000000000000000000000000000000000000000000000000060009081526020527f67be87c3ff9960ca1e9cfac5cab2ff4747269cf9ed20c9b7306235ac35a491c5805460ff1916600117905560eb806100746000396000f300608060405260043610603e5763ffffffff7c010000000000000000000000000000000000000000000000000000000060003504166301ffc9a781146043575b600080fd5b348015604e57600080fd5b5060777bffffffffffffffffffffffffffffffffffffffffffffffffffffffff1960043516608b565b604080519115158252519081900360200190f35b7bffffffffffffffffffffffffffffffffffffffffffffffffffffffff191660009081526020819052604090205460ff16905600a165627a7a72305820a5903ffc8e99e3590cc02fd20c99ca1058d946aa5e6d26f873153279186767710029",
  "source": "/**\n * @file SupportsInterface.sol\n * @author John DeBord <i@johndebord.tk>\n * @date 2018\n * \n * Utilizing 0xcert's ERC721 token implementation\n * https://0xcert.org/\n */\n\npragma solidity ^0.4.20;\n\nimport \"./ERC165.sol\";\n\n/**\n * @title SupportsInterface\n * @dev Implementation of standard to detect smart contract interfaces.\n */\ncontract SupportsInterface is\n    ERC165\n{\n\n    /**\n    * @dev Mapping of supported interfaces.\n    * @notice You must not set element 0xffffffff to true.\n    */\n    mapping(bytes4 => bool) internal supportedInterfaces;\n\n    /**\n    * @dev Contract constructor.\n    */\n    function SupportsInterface()\n        public\n    {\n        supportedInterfaces[0x01ffc9a7] = true; // ERC165\n    }\n\n    /**\n    * @dev Function to check which interfaces are suported by this contract.\n    * @param _interfaceId Id of the interface.\n    */\n    function supportsInterface(\n        bytes4 _interfaceId\n    )\n        external\n        view\n        returns (bool)\n    {\n        return supportedInterfaces[_interfaceId];\n    }\n\n}\n",
  "sourcePath": "/home/i/BibleToken/contracts/SupportsInterface.sol",
  "compiler": {
    "name": "solc",
    "version": "0.4.24+commit.e67f0147.Emscripten.clang"
  },
  "schemaVersion": "2.0.0",
  "updatedAt": "2018-07-07T04:00:26.285Z"
}